003156AALASSANE        SY            00000016511N0008290001062000CENTRE PEYTAVIN
003907MHAMADY          BA            00000020037W0008465001062000CENTRE PEYTAVIN
007400CROKHAYA         FALL VVE      00000047491M0002097001062000CENTRE PEYTAVIN
007996AFATOU           TALL VEUVE    46285B      0012148501062000CENTRE PEYTAVIN
008234EFATOU           DIALLO        00000013964V0014969101062000CENTRE PEYTAVIN
008535AMARIEME         ANE VEUVE     00000010574K0008574901062000CENTRE PEYTAVIN
802039DELIMANE         DIONE         0000014559 S0030316801062000CENTRE PEYTAVIN
807075QAMADOU AHMED    MBOW             34953    0024294601062000CENTRE PEYTAVIN
812678BAMINATA         DIAGNE        0365367001010041156801062000CENTRE PEYTAVIN
816325GYANDA           DIOUM         00000037288X0027530001062000CENTRE PEYTAVIN
816431KSEKOU MOHAMED   FADIGA        00000002726E0039336401062000CENTRE PEYTAVIN
818492RAMADOU SOW      MBENGUE       0000000329630030632001062000CENTRE PEYTAVIN
819120QIBRAHIMA        DIAGNE        0370962001010034276801062000CENTRE PEYTAVIN
821586DTHIERNO MAMADOU WANE               033698V0029754601062000CENTRE PEYTAVIN
822297HBIRANE          FALL          0368714001010025716301062000CENTRE PEYTAVIN
824635BOUMAR           BA            0004102001010033176201062000CENTRE PEYTAVIN
827246IPAUL            DIENG              00088060023020201062000CENTRE PEYTAVIN
828422JJEAN CHRISTOPHE COLY          0104031241080027772601062000CENTRE PEYTAVIN
830905IBASSIROU        NDIAYE        0000000303270034982101062000CENTRE PEYTAVIN
830965CBOCAR SILEYE K  SAM           0000000050840030620701062000CENTRE PEYTAVIN
831416CALIOU           DIOUF         0000000079840038022601062000CENTRE PEYTAVIN
839554JFATIMATA ELIMANEKANE          1041037710110034588601062000CENTRE PEYTAVIN
840829KPALL            DIEME         4000000001300023358101062000CENTRE PEYTAVIN
840996BTHIERNO SAMBA   NDIAYE        0025431011010035422201062000CENTRE PEYTAVIN
841202AKHADY           GUEYE         0089411011120037344901062000CENTRE PEYTAVIN
841236ZASTOU           DIAGNE        0001457001010038924201062000CENTRE PEYTAVIN
841247ZGEORGES         BATHE         0004935001010032002301062000CENTRE PEYTAVIN
841272HPAPA LEYTI      DIAGNE        1032865110110063670201062000CENTRE PEYTAVIN
841279ASEYNABOU        SENE          1000254510110038770701062000CENTRE PEYTAVIN
841304BAISSATA OUMOU   KAMARA        0370981001010035184701062000CENTRE PEYTAVIN
841315BAISSATOU AIDARA MBENGUE       0062755001010048254901062000CENTRE PEYTAVIN
841429FSTEPHANIA       COLY          1000252710110030526201062000CENTRE PEYTAVIN
872573BMAGUETTE        GUEYE VVE     1044659420110009701201062000CENTRE PEYTAVIN
874064GNDEYE COUMBA    DIOP VVE      1046162020110016799201062000CENTRE PEYTAVIN
874360HMARIAME         CISSE VVE     1033900820110006320601062000CENTRE PEYTAVIN
877200FAISSATOU        BAMBA VVE     SN10701240100010766801062000CENTRE PEYTAVIN
950139CABDOULAYE       CAMARA        00000024817S0008297401062000CENTRE PEYTAVIN
950825GCHARLES         CARRERE       00000004785T0010981101062000CENTRE PEYTAVIN
953493ILASSANA         TRAORE        00000025118U0014767201062000CENTRE PEYTAVIN
959924BBOCAR           SECK          00000021277U0030966801062000CENTRE PEYTAVIN
971739JNDONGO          DIOP          00000019890L0020774901062000CENTRE PEYTAVIN
974570HMAMADOU         SAGNA         0000000193550014801701062000CENTRE PEYTAVIN
984057CSIRY            SENE VEUVE    291 83M     0004479201062000CENTRE PEYTAVIN
984316CANNE MARIE      DIAZ VEUVE    4596M       0009763301062000CENTRE PEYTAVIN
987082NFATOU           GASSAMA VVE   00000036026A0006729101062000CENTRE PEYTAVIN
950256AMAMADOU LAMINE  TAMBA         00000005923E0009447101062000CENTRE PEYTAVIN
958944CPIERRE          NDOYE         0378204001010038308401062000CENTRE PEYTAVIN
853080NMARIEME         MAHOULOU VEUVESN10701240100007544701062000CENTRE PEYTAVIN
960685ZYOUSSOUPH       DRAME               19166Z0013327001062000CENTRE PEYTAVIN
961152FJOSEPHINE       GOMIS         00000047592X0017269701062000CENTRE PEYTAVIN
975841BASTOU           SECK VEUVE    00000055313P0002984601062000CENTRE PEYTAVIN
980201BANTA COUMBA     DIOP VEUVE    33278N      0007943201062000CENTRE PEYTAVIN
983666BFATIMATA KALIDOUNDIAYE VEUVE  14842Z      0009225001062000CENTRE PEYTAVIN
875321DMOUHAMADOU      BA ORPH       1038207620210006538501062000CENTRE PEYTAVIN
991875EMARIEME         NDIAYE VEUVE  00000006497D0003862501062000CENTRE PEYTAVIN
004253DBOUBACAR        DIEME         00000024136B0009892101062000CENTRE PEYTAVIN
953547ALEOPOLD         SAGNA         00000001469N0011699301062000CENTRE PEYTAVIN
961939KMAMOUSSE        DIAW          0000000077830019671101062000CENTRE PEYTAVIN
990433DMBATHIO         DIOP VEUVE    04031 Y     0004295301062000CENTRE PEYTAVIN
952369ZSEYDOU          BA            00000028446L0017243601062000CENTRE PEYTAVIN
958122KMARGUERITTE ROSICHAMBAZ BROW  00000001869Y0016385701062000CENTRE PEYTAVIN
969357GJEAN MARIE      FAYE          12125W      0016723701062000CENTRE PEYTAVIN
099044ZKARAMOKO        DIOP          00000007297Y0010498901062060CENTRE PEYTAVIN
801796EDIALO           KANE          0007489001010035338301062060CENTRE PEYTAVIN
833302CIBRAHIMA        SENE          SN10701240100058088101062060CENTRE PEYTAVIN
952532BBOCAR           SECK          00000021277U0013954901062060CENTRE PEYTAVIN
835760ISALIOU          FAYE          1049882710110010560001062060CENTRE PEYTAVIN
855403APENDA           BARRO VEUVE   00000467083R0009792601062060CENTRE PEYTAVIN
855744AKHADIDJA        COUNDOUL ORPH 1049025920110006978801062060CENTRE PEYTAVIN
