603919HAMADOU OUMAR    GUEYE         00000001436C0030631501091930CENTRE PEYTAVIN
423348BTHIABA          DIAKHATE      1024598710110023807401091932CENTRE PEYTAVIN
413628FINSA            DIAGNE        0000008562/Y0025454101091932CENTRE PEYTAVIN
059987DSOULEYE         COLY          0000000002680180000001091932CENTRE PEYTAVIN
435096IABBA            MANGA         1038277110110014352501091932CENTRE PEYTAVIN
059988EMAMADOU LAMINE  COLY          0000000010920375000001091932CENTRE PEYTAVIN
407132KABDOUL AZIZ     FALL          0000008652/W0037808801091932CENTRE PEYTAVIN
409816ZDEMBA YACINE    SEYE          00000005148M0040820301091932CENTRE PEYTAVIN
410615GJOSEPH          MANGA         0000009074/E0029850501091932CENTRE PEYTAVIN
412275ETALLA           SARR          0000009040/T0022477901091932CENTRE PEYTAVIN
412553BDANIEL          NAPAMANE      0000035/30D 0015928701091932CENTRE PEYTAVIN
413118BPAPE MOMAR      NDIAYE        0000000123/A0032877201091932CENTRE PEYTAVIN
414950CMAMADOU         TOURE         0000009026/C0022379901091932CENTRE PEYTAVIN
414951BYOUSSOUPHA      CAMARA        00000012703Z0028925401091932CENTRE PEYTAVIN
430178AYOUSSOUPH       NIANG         0000005976/M0011232301091932CENTRE PEYTAVIN
434336ABOUBACAR        SANO          1035737010110011006201091932CENTRE PEYTAVIN
437366ECHERIF          DIATTA        1037245810110014341101091932CENTRE PEYTAVIN
437603ABABACAR         NDIAYE        1038261510110018032001091932CENTRE PEYTAVIN
413795CMALICK          DABO          0000009294/U0039001901091932CENTRE PEYTAVIN
430670BMOHAMED LAMINE  SADIO         0000025001/K0009349901091932CENTRE PEYTAVIN
407300HSAMBA SOUNA     FALL          0000000140/U0029064101091932CENTRE PEYTAVIN
414289DJEAN BAPTISTE DJSENGHOR       1033950310110026178501091932CENTRE PEYTAVIN
406528AJULES GREGOIRE  MALOU         0000008676/X0029975301091932CENTRE PEYTAVIN
431539IALIOUNE BADARA  NDIAYE        0000000015660025701701091932CENTRE PEYTAVIN
403771FDOMINIQUE       SAMY          01878       0038942601091932CENTRE PEYTAVIN
399189AMARTIN          MBAYE         0000000011534035000001091932CENTRE PEYTAVIN
405463HDJIBRIL         DIONE         0000000015760038828001091932CENTRE PEYTAVIN
411160ITALIBE          TOURE         0000003511/H0030589101091932CENTRE PEYTAVIN
431909PMALICK          FALL          0000000018610013617001091932CENTRE PEYTAVIN
433336BMATHURIN        NYAFOUNA      1033878310110014024801091932CENTRE PEYTAVIN
433462DAWA             BIAYE         1034481310110023279801091932CENTRE PEYTAVIN
437552FTALLA           SEYE          1038384510110010023601091932CENTRE PEYTAVIN
437553EOMAR            PAM           1038571810110009849901091932CENTRE PEYTAVIN
442889GOMAR            BA            1043088610110008551801091932CENTRE PEYTAVIN
410686AMOHAMADOU       KONE          0000008787/T0027010501091932CENTRE PEYTAVIN
407406AOMAR            DIAGNE        0000000107370405000001091932CENTRE PEYTAVIN
410136AABDOURAHMANE    AKIB          0000009260G 0041104301091932CENTRE PEYTAVIN
437667ANARCISSE        DIEDHIOU      1038700110110010592801091932CENTRE PEYTAVIN
664046BSALIMATA        BADJI         1036409310110015721501091933CENTRE PEYTAVIN
508899EOUSMANE         DIALLO        03279F      0046083801091933CENTRE PEYTAVIN
615539AASSANE          DIALLO        8570G       0013301001091933CENTRE PEYTAVIN
519343KMOUSSA          DIAGNE        0000000078530034800001091933CENTRE PEYTAVIN
618189KIBRAHIMA        DIALLO        008563/Z    0014301101091933CENTRE PEYTAVIN
612176GSALIOU          DIAGNE        12732F      0016331901091933CENTRE PEYTAVIN
615783HLEYLA           DIOP          3543P       0015278001091933CENTRE PEYTAVIN
620947HALASSANE        BA            1001271710110009347801091933CENTRE PEYTAVIN
605650JNGATTE          DIOP          3268/U      0019815401091933CENTRE PEYTAVIN
624781HABDOUL AZIZ     NGUIRANE      1032870010110021132101091933CENTRE PEYTAVIN
628293PASSANE          FALL          1033531010110022742401091933CENTRE PEYTAVIN
631461EMOUSSA          GAYE          01488J      0013702401091933CENTRE PEYTAVIN
605659AISSA            BOCOUM        008267C     0015034501091933CENTRE PEYTAVIN
615515ASANGONE         MBAYE         008564/A    0014415201091933CENTRE PEYTAVIN
619987FMOUSSA          BEYE          12734H      0013819801091933CENTRE PEYTAVIN
617179ISEYDINA OUSMANE DIALLO        012622L     0021951601091934CENTRE PEYTAVIN
617329BFAMOUSSE        NDIAYE        8537W       0018988501091934CENTRE PEYTAVIN
615875DAMADOU          MBAYE         12772X      0038165301091934CENTRE PEYTAVIN
612656ZMAME PIKINI     DIEYE         9181        0014037501091934CENTRE PEYTAVIN
508546FAIDA            SECK          0000000074630012551201091934CENTRE PEYTAVIN
618326FSEYDINA OUSMANE COULIBALY     9319W       0009376201091934CENTRE PEYTAVIN
624661GABDEL KADER     SECK          12745D      0010496401091934CENTRE PEYTAVIN
624662FFATOU           SOUMARE       12737Q      0006704901091934CENTRE PEYTAVIN
612571HAISSATOU        DIOP          12736K      0013976901091934CENTRE PEYTAVIN
624593IDEMBA           DIOP          00000002408J0052881701091935CENTRE PEYTAVIN
679445CEL HADJI CHEIKH NGOM          1035972910110028744401091935CENTRE PEYTAVIN
617788EASSANE          BA            05176T      0018509301091940CENTRE PEYTAVIN
612499CAWA             SARR          2477J       0011450301091940CENTRE PEYTAVIN
513880GABDOULAYE       MBODJI        03402       0020283401091940CENTRE PEYTAVIN
602776BAMADOU          DIA           7744J       0018948601091942CENTRE PEYTAVIN
607102JFATOU           SALL          2540C       0018163201091942CENTRE PEYTAVIN
504126DMAMADOU         DIOP          06517       0027899701091942CENTRE PEYTAVIN
602751EBOUYA           SIDIBE        06299N      0013554601091942CENTRE PEYTAVIN
387905LELHADJI         DIOP          0000000044780024055901091942CENTRE PEYTAVIN
508831GSOULEYMANE      BOCOUM        05990       0020479101091942CENTRE PEYTAVIN
508797HMAMADOU SARR    NDIAYE        6274        0026844201091942CENTRE PEYTAVIN
509713ECHEIKH MOULAYE  GUEYE         0000000052200020359601091942CENTRE PEYTAVIN
515322FAMADOU MOUST    KONARE        05805       0022926001091942CENTRE PEYTAVIN
509709BMAME BIRAM      BODIAN        0000000074310019599401091942CENTRE PEYTAVIN
501214APAPA ARONA      NDIAYE        06265       0014978701091942CENTRE PEYTAVIN
504678BOUMOU           MBAYE         1225        0027962801091943CENTRE PEYTAVIN
516752FDAOUDA          CISSE         5075/H      0041601001091943CENTRE PEYTAVIN
510583DMALICK          FALL          2004        0037021301091945CENTRE PEYTAVIN
606075NMANSOUR         DIAGNE        1712C       0029880501091946CENTRE PEYTAVIN
611894CNDEYE AISSA     GUEYE         9242        0011164501091949CENTRE PEYTAVIN
510149BDJIBRIL         SOW           00360       0044905301091950CENTRE PEYTAVIN
518913AAMINATA         KEBE          02255       0040052101091950CENTRE PEYTAVIN
515842CMBAYE           KA            9138Z       0039738101091950CENTRE PEYTAVIN
518932DIBRAHIMA        FALL          09145G      0047937501091950CENTRE PEYTAVIN
508289JHAMADY OUMAR    THIAM         09278       0034888401091950CENTRE PEYTAVIN
509640LFATOU           WADE          0000000034700035916201091950CENTRE PEYTAVIN
385800HISSA            MBODJI        0000000025860027957001091950CENTRE PEYTAVIN
504173LMOUSSA          BADJI         0000000027590033980701091950CENTRE PEYTAVIN
621221DFATOU MBACKE GUEMBAYE         8584/X      0019755901091950CENTRE PEYTAVIN
631133CIBNOU           NDIAYE        2599        0023890801091950CENTRE PEYTAVIN
631403CCHEIKH TIDIANE  SARR          481         0023847001091950CENTRE PEYTAVIN
605908FHAMIDOU MAMADOU MBOW          002053Y     0039865001091950CENTRE PEYTAVIN
636751FSOKHNA          DIOP          1829        0024638401091950CENTRE PEYTAVIN
514832AMOUHAMADOU MOUS FALL          05950       0031178401091950CENTRE PEYTAVIN
514503ZMOR             MBEGUERE      005062U     0040480401091950CENTRE PEYTAVIN
610597BBABACAR         DIOUF         08591       0034867501091950CENTRE PEYTAVIN
620586AEL HADJI OUMAR  CISSE         3457Z       0025729801091950CENTRE PEYTAVIN
633758DMOUHAMADOU      MBAYE         1457/A      0025694501091950CENTRE PEYTAVIN
690851GKHADY           THIOUNE       1000173210110022121101091950CENTRE PEYTAVIN
511455ANDEYE GNILANE   DIALLO        0000000012260026504801091950CENTRE PEYTAVIN
516467EEL H ABDOULAYE  MBODJ         8970        0031144601091950CENTRE PEYTAVIN
518988CISSA            SARR          1471/R      0050106701091950CENTRE PEYTAVIN
610706HPAPA GUEYE      NIANG         00000002486U0036296001091950CENTRE PEYTAVIN
627035IMBATHIO         NDIAYE        00328Y      0027829901091950CENTRE PEYTAVIN
628764GFATOU           MBENGUE       2563        0020637201091950CENTRE PEYTAVIN
632619IOUSMANE         SOW           2483        0028711601091950CENTRE PEYTAVIN
667811AASSIYATOU       SAME          1000159210110024288401091950CENTRE PEYTAVIN
674958IMARIEME         DIOP          1000182410110023181301091950CENTRE PEYTAVIN
604005EDJIBY           NDIAYE        1503A       0033617701091950CENTRE PEYTAVIN
636375HCOUMBA          GAIDO         15019/T     0025492501091950CENTRE PEYTAVIN
686022DALPHY           DIALLO        1000154810110024919401091950CENTRE PEYTAVIN
686047AAISSATA AMADOU  WONE          1000182310110020414801091950CENTRE PEYTAVIN
687614DAMADOU ABDOUL   BA            3718120010150020200201091950CENTRE PEYTAVIN
686744CMATAR           CISSE         1010776210110026557801091950CENTRE PEYTAVIN
512082LDOMINQUE        NDECKY        01317       0037526201091950CENTRE PEYTAVIN
601988BMAGATTE ABDOU   DIAW          7593V       0032728001091950CENTRE PEYTAVIN
613953AIBRAHIMA        SALL          5013/R      0029551601091950CENTRE PEYTAVIN
615049ENDEYE MARIANNE  DIOP          8890/E      0025888301091950CENTRE PEYTAVIN
615824ZALASSANE        BANEL         005124      0024484601091950CENTRE PEYTAVIN
616964DASSANE          LY            8533/S      0031044801091950CENTRE PEYTAVIN
617089KMASSAMBA        SYLLA         05098       0030160801091950CENTRE PEYTAVIN
621599ZABDOUL AZIZ     SAMB          03419H      0028744801091950CENTRE PEYTAVIN
621942BSADY CISSE      SARR          3495/R      0032844301091950CENTRE PEYTAVIN
622034EIBRAHIMA        DIOP          003486F     0034281901091950CENTRE PEYTAVIN
626417ZABDOUL AZIZ     NDIAYE        9379/M      0032741101091950CENTRE PEYTAVIN
627460MIBRAHIMA FARA   DIOUF         9483Z       0039341601091950CENTRE PEYTAVIN
627702BMARIYAMA        SARR          9109        0016460601091950CENTRE PEYTAVIN
628565HALFRED FODE     NIANG         09080/L     0029037001091950CENTRE PEYTAVIN
628799EABDOUL AZIZ     DIALLO        09054/H     0019746501091950CENTRE PEYTAVIN
629937ZDAOUDA          SECK          9198P       0024424201091950CENTRE PEYTAVIN
630065DMARIAMA KA      DIALLO        050W        0020470401091950CENTRE PEYTAVIN
630120DOUSSEYNOU       ANNE          12750A      0028174101091950CENTRE PEYTAVIN
630376ACOUMBA          NDIAYE        1033718510110024496701091950CENTRE PEYTAVIN
630386BAMADOU MAKHTAR  DIAGNE        479         0031179001091950CENTRE PEYTAVIN
630438FATOUMANE        DIONE         12721U      0030912701091950CENTRE PEYTAVIN
630512CBADARA          MBODJI        9200S       0042679901091950CENTRE PEYTAVIN
630935HMAMADOU         FAYE          12724/X     0018069101091950CENTRE PEYTAVIN
631165DMAGATTE         SY            00477       0025143301091950CENTRE PEYTAVIN
631632AFATOU NDIOUGA   DIAWARA       8689L       0029111601091950CENTRE PEYTAVIN
631646DBADARA          DIOP          476         0019213701091950CENTRE PEYTAVIN
632698ZMBAYANG         SENE          12725Y      0023288201091950CENTRE PEYTAVIN
633097HNGOUDA          GUEYE         8976Y       0028061001091950CENTRE PEYTAVIN
633337AMODY            BA            8979        0025521301091950CENTRE PEYTAVIN
633589ZNDEYE BIRAME    NDIAYE        2470B       0023480301091950CENTRE PEYTAVIN
634375FKHADY           WADE          1432        0025447101091950CENTRE PEYTAVIN
634743AMARIAMA         SIDIBE        2419        0022909201091950CENTRE PEYTAVIN
635194LHABY MAMADOU    SAKHO         1427A       0023215101091950CENTRE PEYTAVIN
636260MBINETA ELIMANE  VAR           0971/X      0026200201091950CENTRE PEYTAVIN
636596GABDOUKARIM      WADE          0000000024260021970801091950CENTRE PEYTAVIN
636607DMAME FARMA      DIOP          2460        0023704001091950CENTRE PEYTAVIN
637781JADAMA           SECK          2480/M      0026472101091950CENTRE PEYTAVIN
637898CAMADOU          DIAGNE        1693G       0034104701091950CENTRE PEYTAVIN
637899BYAYA ABDOULAYE  SARRE         2551        0041921001091950CENTRE PEYTAVIN
638109AMAME ASTOU      SECK          17021M      0024234601091950CENTRE PEYTAVIN
638827BFATOU DIAW      DIOP          0000000017080025511801091950CENTRE PEYTAVIN
639523FBOUBACAR        COULIBALY     0000000018900032262001091950CENTRE PEYTAVIN
640198BBOCAR MOUSSA    THIAM         0000000019730033769801091950CENTRE PEYTAVIN
640598BOMAR            LO            0034111710110024948001091950CENTRE PEYTAVIN
641000CMAHMOUD         DIOP          1035361710110035277801091950CENTRE PEYTAVIN
641351DADJA NDEYE MAREMNIANG         0000000017070050203801091950CENTRE PEYTAVIN
641538GAHMED           CISSE         1000177610110024414601091950CENTRE PEYTAVIN
643672DAMINATA         DIAGNE        0000000018320024638401091950CENTRE PEYTAVIN
643908LAISSATOU        SOW           0000000030000029682801091950CENTRE PEYTAVIN
644801CMARIE MADELEINE NDIAYE        1827        0027828501091950CENTRE PEYTAVIN
646595GAWA             BOYE          1000352710110027125901091950CENTRE PEYTAVIN
649244IELHADJI AMADOU  YAGUE         1000176810110022963001091950CENTRE PEYTAVIN
650436FMARIEME         AW            1000173310110313490501091950CENTRE PEYTAVIN
650451AOULIMATA        NDIAYE        1000243810110025023101091950CENTRE PEYTAVIN
650852DNDEYE FATOU     DIOUF         1000177110110016768201091950CENTRE PEYTAVIN
653900EKHADY SEYE      DIAO          1000149010110025161401091950CENTRE PEYTAVIN
657033HBINETA          LADIANE       1000245510110024288401091950CENTRE PEYTAVIN
657041KADAMA           SOW           1000178910110024711801091950CENTRE PEYTAVIN
657107ZMARGO           DIAGNE        1000244310110024138401091950CENTRE PEYTAVIN
658672HPENDA DIAGNE    NDONGO        1000153410110020167301091950CENTRE PEYTAVIN
661140DNGUISSALY       GUEYE         1033688110110024764701091950CENTRE PEYTAVIN
667674DIBRAHIMA AMATH  DIBA          1000182210110022850101091950CENTRE PEYTAVIN
668685ENDEYE WADE      SY            1000157110110017955901091950CENTRE PEYTAVIN
670232BOUMAR           SOW           1043016610110024291301091950CENTRE PEYTAVIN
669169EFATIMATA        BA            1000174610110023631301091950CENTRE PEYTAVIN
627232JANTA            MBODJ         2589F       0031200701091950CENTRE PEYTAVIN
506381OMBARGOU         LO            09068/Y     0038887301091950CENTRE PEYTAVIN
509226HAMINATA         CISSE         1857        0029603301091950CENTRE PEYTAVIN
517878BDAOUDA          GUEYE         1564        0030769601091950CENTRE PEYTAVIN
600782EHADJI           SY            1600/F      0026419901091950CENTRE PEYTAVIN
606446FABSATOU         NIANG         3403P       0013327701091950CENTRE PEYTAVIN
607397LABDOULAYE       HANNE         16083/W     0032437601091950CENTRE PEYTAVIN
629916AASSANE          HANNE         12779G      0028975701091950CENTRE PEYTAVIN
629979BNGALANDOU       DIONE         09366X      0032463101091950CENTRE PEYTAVIN
389827IEL ASSANE       LY            0000000102200017472801091950CENTRE PEYTAVIN
630566BAMINATA         SECK          09058M      0022842501091950CENTRE PEYTAVIN
389378ZCHEIKH          HANNE         03460/C     0034553801091950CENTRE PEYTAVIN
505090SSALIOU          DIAO          0000000082950028921301091950CENTRE PEYTAVIN
607362NMOUHAMADOUL KHAZGUEYE         2481N       0032771001091950CENTRE PEYTAVIN
621004AYOUSSOUPH       DIALLO        1435/B      0028906301091950CENTRE PEYTAVIN
622098GAL HASSANE      NDOME         1438/E      0027548401091950CENTRE PEYTAVIN
627502DOUMAR           SECK          00000001496C0029384001091950CENTRE PEYTAVIN
631616GALE             GUEYE         0000000070900031520701091950CENTRE PEYTAVIN
381995ITHIERNO SAMBA   NDIAYE        2543F       0021833101091950CENTRE PEYTAVIN
385628LAHMED IYANE     DIAKHATE      08586Z      0021488001091950CENTRE PEYTAVIN
385632EADAMA           FALL          12709F      0028578401091950CENTRE PEYTAVIN
386049DMADELEINE       FALL          2278        0029399501091950CENTRE PEYTAVIN
389826HAMAR            GUEYE         12744C      0050157901091950CENTRE PEYTAVIN
500176ESEYNABOU        DIENG         0000000087900020990001091950CENTRE PEYTAVIN
505096MMOMAR           GUEYE         8297K       0025626801091950CENTRE PEYTAVIN
505107BDEMBA           SOW           8972        0046382201091950CENTRE PEYTAVIN
508168JDEMBA           SAMOURA       10127301011 0037042501091950CENTRE PEYTAVIN
510482FBABACAR         SARR          12742S      0022743701091950CENTRE PEYTAVIN
510498ACHEIKH MAKHFOUSSSECK          CC021W      0031874801091950CENTRE PEYTAVIN
510959IJULES           CISSE         2027V       0043950201091950CENTRE PEYTAVIN
511757DMASSOW          LO            4767        0035367401091950CENTRE PEYTAVIN
514144GMAMADOU MALICK  GAYE          573         0037847601091950CENTRE PEYTAVIN
514915EMOUSSA          LO            3247/W      0031036901091950CENTRE PEYTAVIN
515309CBASSINE         DIALLO        00000012735J0023371501091950CENTRE PEYTAVIN
516095NMASSAMBA        BOYE          05945       0026857001091950CENTRE PEYTAVIN
517868AABDARAHMANE     DIOL          1137        0033417001091950CENTRE PEYTAVIN
603867ZMOUSTAPHA       SECK          07914/U     0032024901091950CENTRE PEYTAVIN
604614ATHIERNO MOUNTAGASAKHO         12710G      0038579601091950CENTRE PEYTAVIN
605064MYAKHYA          NIANG         8633A       0029697101091950CENTRE PEYTAVIN
605065LALIOUNE BADARA  DIAW          008543      0082590201091950CENTRE PEYTAVIN
606172PROKHAYA         NDONG         12754E      0029022401091950CENTRE PEYTAVIN
607555HMOUNTAGA        LY            2590G       0041371001091950CENTRE PEYTAVIN
608162QFATY            SARR          00000009267/0025705701091950CENTRE PEYTAVIN
609056NTHIANE          GAYE          12708E      0011938301091950CENTRE PEYTAVIN
612523AOUSMANE         CAMARA        1570Y       0026294801091950CENTRE PEYTAVIN
617015HWALY            THIAM         09317       0033687301091950CENTRE PEYTAVIN
617440LANTA            KANE          2478F       0026312601091950CENTRE PEYTAVIN
617646DIBRAHIMA        NIANG         1569X       0024205301091950CENTRE PEYTAVIN
621096HSALIOU          SARR          03418/G     0109319901091950CENTRE PEYTAVIN
621396ENDEYE ARAME     SEYE          09191G      0013771001091950CENTRE PEYTAVIN
622021GLENA            THIAM         2556        0028281801091950CENTRE PEYTAVIN
622234CAMADOU          BA            086029/W    0022150001091950CENTRE PEYTAVIN
622255DASSANE          GUEYE         000141      0020473201091950CENTRE PEYTAVIN
622270KAMADOU          NGOM          12087E      0031398101091950CENTRE PEYTAVIN
623680INDEYE MARIE     MBAYE         2572        0034509501091950CENTRE PEYTAVIN
626192PMAME FAMA       DIOP          12755       0140266901091950CENTRE PEYTAVIN
627018DWEYNE           DIENG         09170J      0021591901091950CENTRE PEYTAVIN
627110KMAMADOU         SY            0000009059  0028143201091950CENTRE PEYTAVIN
628900CBABACAR         DIOCKH        9197        0025770301091950CENTRE PEYTAVIN
629699GAMADOU MOUSTAPHADIALLO        2531B       0028989401091950CENTRE PEYTAVIN
629715BHABIB THIAM     NIASSE        12753W      0032574001091950CENTRE PEYTAVIN
629756EALIOUNE         NDIAYE        2581        0024574601091950CENTRE PEYTAVIN
630286CDJIBY           MBAYE         0078B       0026786601091950CENTRE PEYTAVIN
630610BMOUHAMADOU      SECK          8692        0033506501091950CENTRE PEYTAVIN
630667DAMINATA         COULIBALY     2517        0023012901091950CENTRE PEYTAVIN
630753BDOUDOU          BA            12722V      0025126801091950CENTRE PEYTAVIN
633361HMADIAGNE        THIAM         2550        0024798001091950CENTRE PEYTAVIN
633894CCOLLE           NDIAYE        2564        0028892501091950CENTRE PEYTAVIN
635008ZMOUHAMADOU MANSODIOP          12733G      0038759301091950CENTRE PEYTAVIN
636732CFATOU           WADE          2553        0020937601091950CENTRE PEYTAVIN
641581EFATOU KASSE     DIAGNE        0000000094150029542501091950CENTRE PEYTAVIN
673947JDIBOR           NDIAYE        1000182610110024903001091950CENTRE PEYTAVIN
690953JNDEYE ROKHAYA   SY            1000181010110022204301091950CENTRE PEYTAVIN
509380SABDOULAYE       GUEYE NO 2    2498G       0034435301091950CENTRE PEYTAVIN
514774DDIEYNABA        SANE          9306        0027979901091950CENTRE PEYTAVIN
385640BAMADOU TIDIANE  NDIAYE        02479/L     0035289601091950CENTRE PEYTAVIN
502445BNDEYE LABA      BA            2495        0029449501091950CENTRE PEYTAVIN
503021IAMADOU SILEYMANEGUISSE        0000000083430036516301091950CENTRE PEYTAVIN
510340EMANDOUNGOU      MBODJI        02975       0029308301091950CENTRE PEYTAVIN
511306DBAKHAW          DIENG         0000000002540024648901091950CENTRE PEYTAVIN
513102DBRAMA           SYLLA         0000000106200036132301091950CENTRE PEYTAVIN
514856AMOUHAMADOU BAND NDIAYE        5846        0033834801091950CENTRE PEYTAVIN
515048EALE             MBAYE         619         0035593601091950CENTRE PEYTAVIN
610893CTAHIB           SOUGOU        53348/D     0030522301091950CENTRE PEYTAVIN
621286ELAMINE ABASS    KANE          03434Z      0024362401091950CENTRE PEYTAVIN
629619AMOUSSA          DIA           1621D       0029558501091950CENTRE PEYTAVIN
510351EMAMADOU         NIANG         0000000017910056744801091950CENTRE PEYTAVIN
514143HYOUSSOUPHA      FALL          0000000067690033578001091950CENTRE PEYTAVIN
515010JOUSSEYNOU       DIOP          00387       0028874101091950CENTRE PEYTAVIN
516200HEL HADJI GORA   BA            0000000008600032402201091950CENTRE PEYTAVIN
516235FAHMADOU         NDIAYE        6068        0032433901091950CENTRE PEYTAVIN
601294JABDOULAYE       DIENG         7928        0027611601091950CENTRE PEYTAVIN
608110NFATOUMATA MAMADOWONE          8245D       0027130401091950CENTRE PEYTAVIN
609141QOUSMANE SAIDOU  DIOM          06270G      0029028201091950CENTRE PEYTAVIN
621028AMAMADOU LAMINE  SY            1469N       0028111001091950CENTRE PEYTAVIN
621093KHAMDOU RABBY    DIA           08644M      0031744001091950CENTRE PEYTAVIN
627943CAISSATOU BOUBOU SY            14068/M     0024214601091950CENTRE PEYTAVIN
631255BAMADOU          DIA           0000064/L   0031211001091950CENTRE PEYTAVIN
631313ASEYNABOU        MBAYE         1559L       0023970501091950CENTRE PEYTAVIN
633102CFATIMATA SEYNABOBA            15060/M     0025631301091950CENTRE PEYTAVIN
637343HBOCAR           MBODJI        01405/U     0029294701091950CENTRE PEYTAVIN
649881JEL HADJI        SARR          1000169010110043188201091950CENTRE PEYTAVIN
514502AMBAYE           KAMA          006041      0043441101091950CENTRE PEYTAVIN
514795ENDEYE AWA       TRAORE        000157      0032622701091950CENTRE PEYTAVIN
508017GFAMA            NDIAYE        0000000002220033305201091950CENTRE PEYTAVIN
383409OMAMADOU AMADOU  SY            15065/T     0030486701091950CENTRE PEYTAVIN
500787ABACARY          BALDE         05450       0038355201091950CENTRE PEYTAVIN
508213IDIOKEL          NGOM          6418        0040685401091950CENTRE PEYTAVIN
513133FMOUSTAPHA       LEYE          0000000106150028974901091950CENTRE PEYTAVIN
516611DIBRAHIMA        BA            06422       0038549701091950CENTRE PEYTAVIN
508320LMOUHAMADOU MOUSTFALL          9286K       0043308501091950CENTRE PEYTAVIN
615252KLATYR           MBODJI        5052H       0031921901091950CENTRE PEYTAVIN
619469GELHADJI         DIEME         5179/W      0030578301091950CENTRE PEYTAVIN
516243IYALY            NDIAYE        563D        0023458501091950CENTRE PEYTAVIN
676128BNOGAYE          FALL          1000156310110023001301091950CENTRE PEYTAVIN
627180RDJIBRIL         NDIAYE        01412B      0031329001091950CENTRE PEYTAVIN
513325ANDIOGOU         SENE          05666       0047869101091950CENTRE PEYTAVIN
615098KABDOULAYE       SY            9089/W      0026654001091950CENTRE PEYTAVIN
621653AELHADJI MALICK  SECK          3514L       0028430401091950CENTRE PEYTAVIN
667459AABIBATOU        DIAW          1000259610110021610201091950CENTRE PEYTAVIN
600311CMOR TALLA       DIOP          07096       0030181901091950CENTRE PEYTAVIN
630226CMOUSTAPHA       DIOP          1658U       0028954301091950CENTRE PEYTAVIN
676608IPAPA MAGATTE    SECK          1000178410110020926901091950CENTRE PEYTAVIN
629134KAMADOU KANE     BEYE          1966/D      0031629001091950CENTRE PEYTAVIN
629981KSAMBA           CAMARA        001481      0027817201091950CENTRE PEYTAVIN
676516EKHADY           NDIAYE        1000252810110022500101091950CENTRE PEYTAVIN
691288DOULIMATA        SALL          1000143710110021654301091950CENTRE PEYTAVIN
510618IPAPA SAMBA AMAD SOW           0000000059600025578701091950CENTRE PEYTAVIN
636231IAICHATOU MBABA  SECK          0000000010680024943301091950CENTRE PEYTAVIN
389368AAMADOU          DIA           7275        0043646701091950CENTRE PEYTAVIN
511468AAMINATA         LOUM          346         0029958801091950CENTRE PEYTAVIN
513116AABDOU LATIF     DIALLO        0000000000260046157201091950CENTRE PEYTAVIN
516239BMOHAMADOU OU NDINDIAYE        9550X       0029152201091950CENTRE PEYTAVIN
517627ZOOSSEYNOU       NIANG         0000000012230035490901091950CENTRE PEYTAVIN
517728BMAME THIERNO    MBACKE        2567        0023498401091950CENTRE PEYTAVIN
518714BDEYNA           MBAYE         02247       0024804701091950CENTRE PEYTAVIN
518834CSOUKEYE         GUEYE         01992       0025930701091950CENTRE PEYTAVIN
600317CABDOULAYE NDONGOBA            1686Z       0024837501091950CENTRE PEYTAVIN
600368AOUMAR           NIANG         0000000072180032354801091950CENTRE PEYTAVIN
600596DALIOU           CISSE         07181       0031669901091950CENTRE PEYTAVIN
601529EAISSATOU        NDIAYE        000362/K    0022579401091950CENTRE PEYTAVIN
602101FSEYNABOU        YADE          07710       0031632501091950CENTRE PEYTAVIN
602192NMOUSTAPHA       NDIAYE        07595/X     0034255101091950CENTRE PEYTAVIN
602214CALIOU           NDIAYE        04551/N     0054612501091950CENTRE PEYTAVIN
602365FABDOUL MADJIB S BA            7598AM      0022945501091950CENTRE PEYTAVIN
603897CBADARA          DIOP          0542/F      0039804601091950CENTRE PEYTAVIN
605278HDJIBY           SARR          03203       0033062601091950CENTRE PEYTAVIN
606135INDEYE KORKA     KEITA         004576/R    0035734501091950CENTRE PEYTAVIN
609144NADAMA           FALL          9566/P      0028422401091950CENTRE PEYTAVIN
609273QOUSMANE         FAYE          03586P      0029831801091950CENTRE PEYTAVIN
609276NABDOU KARIM     SOUNG         8579S       0037190001091950CENTRE PEYTAVIN
610674BAMATH           SARR          8266/B      0030913801091950CENTRE PEYTAVIN
610765ADAOUDA          DIAGNE        2094T       0028380001091950CENTRE PEYTAVIN
610796AFATOU           DIAGNE        3283K       0020900801091950CENTRE PEYTAVIN
610798AYANKHOBA        LO            3255E       0032406301091950CENTRE PEYTAVIN
611717GSAMBA           NDIAYE        004204      0038704601091950CENTRE PEYTAVIN
509148IADRAME          SOW           3859        0034898901091950CENTRE PEYTAVIN
511604EMAMADOU BA      DIALLO        5639        0042767001091950CENTRE PEYTAVIN
511844CSERIGNE         MBACKE        6137        0034272101091950CENTRE PEYTAVIN
518976DAMADOU DIADIE   BA            00192A      0038296901091950CENTRE PEYTAVIN
516250MDOUDOU          SECK          02676       0024707401091950CENTRE PEYTAVIN
604908GABDOU           DIOP          08590       0022371701091950CENTRE PEYTAVIN
615298ICHERIF BEUYA    SENE          4106        0029738501091952CENTRE PEYTAVIN
603313DTHILLO          SOUMARE       07899       0020516901091954CENTRE PEYTAVIN
612318CSILEYMANE       DIALLO        4139/R      0017521101091954CENTRE PEYTAVIN
616432HLEITY           DIOP          9137/Y      0014083801091954CENTRE PEYTAVIN
617852GAMIE            FAYE          00189X      0014611001091954CENTRE PEYTAVIN
627590OAWA             LY            009114/Y    0019318701091954CENTRE PEYTAVIN
642108EADAMA           FAYE          1991        0017757701091954CENTRE PEYTAVIN
675148AAMADOU          GAYE          1000176310110016234401091954CENTRE PEYTAVIN
675149BAMINATA         AIDARA        1000176010110018570101091954CENTRE PEYTAVIN
605211IKHADY           NDIAYE        000104      0021210501091954CENTRE PEYTAVIN
606104GAMET            FALL          8541A       0025503701091954CENTRE PEYTAVIN
506621FMOUSSA          DRAME         9888        0027753701091954CENTRE PEYTAVIN
502718GMOUHAMADOU      HANNE         05661       0024572401091954CENTRE PEYTAVIN
622651DMBAYE           GAYE          0000000015840019247701091954CENTRE PEYTAVIN
642352DADAMA           GUEYE         0000000094380018805201091954CENTRE PEYTAVIN
662041EANNA NOGAYE     NDIONE        1000176510110044903601091954CENTRE PEYTAVIN
508610HSTEPHANIA       COLY          2527G       0021685001091954CENTRE PEYTAVIN
600637DMAMADOU         DIAGNE        12707D      0023180901091954CENTRE PEYTAVIN
501064HNDEYE           NDIAYE        0000000050570019639901091954CENTRE PEYTAVIN
603179FMABARA          NIANG         0000000003060023156201091954CENTRE PEYTAVIN
623989CNDEYE FATOU NDI GUEYE         08617/H     0016061601091954CENTRE PEYTAVIN
622657BDAME            MBOW          00000008672T0015899201091954CENTRE PEYTAVIN
501050KALIOUNE         DIENG         5114        0054714701091954CENTRE PEYTAVIN
509716BSERIGNE         DIOP          05785E      0019451101091954CENTRE PEYTAVIN
515509EABDOURAHMANE    BA            00846       0025491201091954CENTRE PEYTAVIN
508937ZAMADOU          KEITA         0000000013620022265201091954CENTRE PEYTAVIN
639775GBASSIROU        FALL          0000000018990025004901091954CENTRE PEYTAVIN
508666GYALI            FALL          05634       0049694101091954CENTRE PEYTAVIN
388910EFATOU BINETOU R LAYE          0000000038910018076601091954CENTRE PEYTAVIN
507002JSEYNABOU        SOUMARE       2526M       0021648601091954CENTRE PEYTAVIN
508408ACOUMBA          FALL          4087        0017830501091954CENTRE PEYTAVIN
509665IADAMA           DIEDHIOU      0495        0017779701091954CENTRE PEYTAVIN
509697JAISSATOU        SARR          0000000103640018317701091954CENTRE PEYTAVIN
509736DAIDA DIOUF      DIENG         0000000003170021900301091954CENTRE PEYTAVIN
509875HBABACAR FALL    DIOP          0000000055250024728501091954CENTRE PEYTAVIN
509883KCHEIKH TIDIANE  WADE          06078       0026024601091954CENTRE PEYTAVIN
515505ASOKHNA          BOYE          05856G      0015889401091954CENTRE PEYTAVIN
609778GMARIETOU        FALL          05158Y      0019805201091954CENTRE PEYTAVIN
612088GMARIETOU        MBAYE         1629M       0015244301091954CENTRE PEYTAVIN
613091PMAIMOUNA        SOW           5030J       0018384501091954CENTRE PEYTAVIN
606116FMAMADOU         DIALLO        15068/W     0065782401091954CENTRE PEYTAVIN
608271RMOUHAMED        BADJI         2583Z       0018308301091954CENTRE PEYTAVIN
507009CFATOU NDARAO    SEYE          3364        0019714601091954CENTRE PEYTAVIN
613021IARONA           FALL          009202      0026249601091955CENTRE PEYTAVIN
513859EMADIENE         FALL          06020       0028941001091955CENTRE PEYTAVIN
600615DGORGUI          GUEYE         08616G      0039565801091956CENTRE PEYTAVIN
502513ZADOLPHE         DIATTA        07888       0034834501091956CENTRE PEYTAVIN
618981KMASSE GAYE      DIEYE         8583W       0030570601091956CENTRE PEYTAVIN
502118AMOUSSA          MBODJ         1458B       0039721501091956CENTRE PEYTAVIN
502119BMASSAMBA        SENE          0000000039390034654101091956CENTRE PEYTAVIN
618864GCOUMBA          LY            5154/U      0019053501091956CENTRE PEYTAVIN
388650BIBRAHIMA        DIOP          0000000065360041238101091956CENTRE PEYTAVIN
618987ETAIFOUROU SANE  BADIANE       8592        0032338001091956CENTRE PEYTAVIN
389118DSEYNABOU        SENE          2545        0034348201091957CENTRE PEYTAVIN
507151OKHADY           GUEYE         8941        0037731601091957CENTRE PEYTAVIN
