608572NCHEIKH OUMAR     NIANG        1000883910710025749431052004CENTRE PEYTAVIN
608940IMALICK DIT NDIOGODIALLO       1000823010710040046331052004CENTRE PEYTAVIN
609992MAMAR             THIAM        1017704210110085570031052004CENTRE PEYTAVIN
609038JFATOU NDIAYE     CISSE        1000922410710020906431052004CENTRE PEYTAVIN
609733HADAMA            DIA          1000000410710018027931052004CENTRE PEYTAVIN
610168BSEYNABOU         GUEYE        1000916210710028621731052004CENTRE PEYTAVIN
610915HNDEYE PENDA      THIAM        1035576310710019810531052004CENTRE PEYTAVIN
611569BNDEYE            CISSE        1036734810710027662731052004CENTRE PEYTAVIN