447359ZMOR             KOUNDOUL      1046582512510405000001091900CENTRE PEYTAVIN
503975AMBACKE          FALL          7451R       0030364501091911CENTRE PEYTAVIN
600791GABY FOUNAPIRE   BADIANE       1024777510110012224301091921CENTRE PEYTAVIN
613420FABDOU AZIZ      DIOP          0369268001010022199701091921CENTRE PEYTAVIN
654281JABDOUL AZIZ     DIOP          0368609001010149723201091921CENTRE PEYTAVIN
519367IYAYA            DANDIO        00000050532T0030325201091921CENTRE PEYTAVIN
411810CDAOUDA          FALL          1032863810110027848401091921CENTRE PEYTAVIN
600622ZABDOURAHMANE    DIOP          39045G      0117749501091921CENTRE PEYTAVIN
623417CNDEYE           DIA           0011929001010018574401091921CENTRE PEYTAVIN
518299JAWA             SOW           48141U      0013702001091921CENTRE PEYTAVIN
604113GMARIE           TALL          46933F      0013082801091927CENTRE PEYTAVIN
384351ZSABARA          DIOP          0000000418470181943201091928CENTRE PEYTAVIN
605105EMAMOUR          DIAGNE        0368872001010013997601091928CENTRE PEYTAVIN
612474FSEYNABOU        DIOUF         0368874001010022513001091928CENTRE PEYTAVIN
612475EFATOU           SAKHO         55349/D     0022946301091928CENTRE PEYTAVIN
645892FFARA            MBODJ         00881700101 0533667901091928CENTRE PEYTAVIN
393394ATHIEYACINE      NDAO          0000050514/Y0051076401091930CENTRE PEYTAVIN
393888KCHEIKH ABDOULAYESAKHO         00000042966U0047205001091930CENTRE PEYTAVIN
421926JCHEIKH          NDIAYE        62186/K     0030276801091930CENTRE PEYTAVIN
393951HOUSSEYNOU       LO            26939Y      0052354101091930CENTRE PEYTAVIN
503579AJEAN MARIE      BADJI         6254P       0042004301091930CENTRE PEYTAVIN
505396JIBRAHIMA        MBENGUE       051297/Z    0048732101091930CENTRE PEYTAVIN
393851GTHIACKA         NDIAYE        55577/B     0048364401091930CENTRE PEYTAVIN
393691AIBRAHIMA        BARRY         1042306510110030884201091931CENTRE PEYTAVIN
411796ZBIRANE          DIOP          1042743410110026674101091931CENTRE PEYTAVIN
625061NCOUTAYE         DIOUSSE       0015039001010015554601091931CENTRE PEYTAVIN
695201ACHEIKH TIDIANE  SOW           1034894810110013818701091931CENTRE PEYTAVIN
392908UBOURAHIMA       NDAO          0062458001010072214001091932CENTRE PEYTAVIN
392940IMOUSSA          BA            0010631001010039576401091932CENTRE PEYTAVIN
393405LIBRAHIMA        MBALLO        04032Z      0035037901091932CENTRE PEYTAVIN
393409PABDOU SALAM     SARR          1033107910110036284301091932CENTRE PEYTAVIN
393433GISSA            NDIAYE        41047H      0041714501091932CENTRE PEYTAVIN
393512IFARBA           DIOUF         1047573310110039965101091932CENTRE PEYTAVIN
393518OEL HADJI        DIEME         1043862210110041434601091932CENTRE PEYTAVIN
393563ECHEIKH A T      NDOYE         0000027374W 0026915101091932CENTRE PEYTAVIN
393587GABDOU           CISSE         66059/V     0044412001091932CENTRE PEYTAVIN
393603LLEOPOLD CLAUDE  NDIONE        7175R       0041720601091932CENTRE PEYTAVIN
393620GBIRAHIM         SYLLA         41445R      0028692401091932CENTRE PEYTAVIN
393622IMOUSSA          KONATE        17349Z      0035481001091932CENTRE PEYTAVIN
393630FJEREMIE         MANDIONE      00000021453K0044066101091932CENTRE PEYTAVIN
393651EMARFAL          GUEYE         0000049580/H0037223701091932CENTRE PEYTAVIN
393664GABDOURAHMANE    DIALLO        53435/Y     0036340401091932CENTRE PEYTAVIN
393766JOUSMANE         GAYE          0062593001010038707901091932CENTRE PEYTAVIN
393777JARTHUR          MANGA         0052263/Z   0031984701091932CENTRE PEYTAVIN
393794EELHADJ MBAYE    DIOP          7677L       0038820301091932CENTRE PEYTAVIN
393813MJEAN MARTIN     NDECKY        1036298710110039865301091932CENTRE PEYTAVIN
393872FBABACAR         FALL          0370375001010045300301091932CENTRE PEYTAVIN
393891CLAMINE          DIOP          6521E       0021496401091932CENTRE PEYTAVIN
393923MDJIBRIL         SAKHO         1046639710110044215501091932CENTRE PEYTAVIN
393936OMOUSSA GUEYE    FAYE          0000050389/M0037566501091932CENTRE PEYTAVIN
393938QEMILE           MANGA         43064A      0062130301091932CENTRE PEYTAVIN
393941IPIERRE MICHEL   FAYE          43369G      0022053501091932CENTRE PEYTAVIN
393966LOUMAR           DIOP          51146/K     0033035301091932CENTRE PEYTAVIN
393974IBOUBOU          SY            0000623510110025672601091932CENTRE PEYTAVIN
394025EIBRAHIMA        TENDENG       52327/U     0031440601091932CENTRE PEYTAVIN
394089CIBRAHIMA        NDIAYE        49402/P     0039869501091932CENTRE PEYTAVIN
394136FBOUBACAR        NIANE         38613M      0031597601091932CENTRE PEYTAVIN
394313GABDOULAYE       DIEYE         1038569010110037724301091932CENTRE PEYTAVIN
394371AMOUHAMADOUL MOUSSARR          00000052944P0040176201091932CENTRE PEYTAVIN
394550BDJIBRIL         DIOP          49697/K     0033152401091932CENTRE PEYTAVIN
394672CMAMADOU BEN A   SEYDI         51859/K     0035725401091932CENTRE PEYTAVIN
394709RAMADOU ABDARAHMABA            0000051953/M0038487601091932CENTRE PEYTAVIN
394741FABDOU           SENE          0000052141/S0030827401091932CENTRE PEYTAVIN
394757KLAMINE          CISSE         53343/Y     0038150701091932CENTRE PEYTAVIN
405304BCOUMBA NDOFFENE DIENG         0000059883/G0032537901091932CENTRE PEYTAVIN
411833DVINCENT JACQUES NDIAYE        0000052530/N0032673401091932CENTRE PEYTAVIN
413796BABDOULAYE       CISSE         0000052482/M0036552101091932CENTRE PEYTAVIN
420039DJEAN BAPTISTE   NZALY         1044122310110035280401091932CENTRE PEYTAVIN
420187BIDRISSA BAYE AS DIOUF         54193/X     0029062001091932CENTRE PEYTAVIN
420308IYASSANE         FAYE          1024006610110075499801091932CENTRE PEYTAVIN
420527HDJIBRIL         MBENGUE       60092/J     0029812001091932CENTRE PEYTAVIN
420562AMOUSSA          DIOP          0000054836/W0025068801091932CENTRE PEYTAVIN
420628JCHEIKHOU OUMAR  BA            000054720/N 0033948501091932CENTRE PEYTAVIN
420694AOUSMANE         BADJI         59633/K     0021362001091932CENTRE PEYTAVIN
420704IALIOU BADARA    SAGNA         53886/N     0029864001091932CENTRE PEYTAVIN
420720CBENJAMIN O      TINE          0000054625/S0028206101091932CENTRE PEYTAVIN
420762AMAODO           NDIAYE        55592/T     0027990701091932CENTRE PEYTAVIN
420857HNICOLA AMPA LUMAMANGA         00053639/V  0032582101091932CENTRE PEYTAVIN
420880BSOULEYMANE      TRAORE        55674/G     0025771001091932CENTRE PEYTAVIN
420905LYANCOUBA        BADJI         54646P      0026424901091932CENTRE PEYTAVIN
420941DMAMADOU LAMINE  NDIAYE        55585/K     0031302101091932CENTRE PEYTAVIN
420944GBAKRY           LOUM          53641/X     0028137801091932CENTRE PEYTAVIN
421661BBOURAMA         SAMBOU        0014156001010029153101091932CENTRE PEYTAVIN
421697ADIACK           FALL          62073/M     0025578301091932CENTRE PEYTAVIN
421733DMOUSSA BALLA    KANTE         1046776310110024079901091932CENTRE PEYTAVIN
421899EISMAILA         DIEDHIOU      62028/N     0029744001091932CENTRE PEYTAVIN
421938KNDENE           DIOUF         62242/W     0030426701091932CENTRE PEYTAVIN
422003AALIOUNE         MBAYE         62009/T     0020135301091932CENTRE PEYTAVIN
422067CMARIETOU        SECK          0368762001010026284401091932CENTRE PEYTAVIN
422073HFATOU NDIAYE    NAME          1041473410110024992301091932CENTRE PEYTAVIN
422100CMAME SIRA       SYLLA         0369404001010017445301091932CENTRE PEYTAVIN
422141FVIEUX SINGHAR   LOUM          0372192001010032370001091932CENTRE PEYTAVIN
422254CAMADOU          MBENGUE       0373725001010026102901091932CENTRE PEYTAVIN
422292ISERIGNE DAROU   DIOP          0376719001010032803801091932CENTRE PEYTAVIN
422316DABLAYE          SARR          0373787001010032586101091932CENTRE PEYTAVIN
422352DOUSMANE         DIOUF         1044389410110038404701091932CENTRE PEYTAVIN
422401AHABIB           GUEYE         0373015001010022169701091932CENTRE PEYTAVIN
422407GYOUSSOUPHA      SECK          0372809001010030925601091932CENTRE PEYTAVIN
422468BVALERE          DIEDHIOU      0372188001010028961701091932CENTRE PEYTAVIN
422556BSAKOU DIAW      NDIAYE        1044817310110025778501091932CENTRE PEYTAVIN
422597AAMIDOU SANE     TOP           0372243001010028879001091932CENTRE PEYTAVIN
422859HFATOU BINT0 DIENBADJI         1024584710110027435201091932CENTRE PEYTAVIN
422896AABDOULAYE       KONTE         1034893010110029652801091932CENTRE PEYTAVIN
423103AALIOU           CISS          1034575810110018976801091932CENTRE PEYTAVIN
423154EKARL CHRISTIAN  NDECKY        1048617010110022420101091932CENTRE PEYTAVIN
423877CADAMA           SECK          1036768510110029564801091932CENTRE PEYTAVIN
424044FAMBAUSENE       BASSENE       1042364411010017835101091932CENTRE PEYTAVIN
424187FABDOULAYE       DIOP          1037304310110017585701091932CENTRE PEYTAVIN
437856AALIOUNE BADARA  FAYE          1042308910110016136701091932CENTRE PEYTAVIN
438828EBABACAR         DIALLO        1041045910110030575801091932CENTRE PEYTAVIN
438965AMARIE           LECOR         1038650010110016637801091932CENTRE PEYTAVIN
439754DKHALIFA ABABACARDIA           1041540810110025949501091932CENTRE PEYTAVIN
440328IOUSMANE         KEBE          1041090110110019845201091932CENTRE PEYTAVIN
442212ABABACAR D0      DIAKHATE      1042706910110019495401091932CENTRE PEYTAVIN
442780CBACARY          DIATTA        1048665710110019959201091932CENTRE PEYTAVIN
443716ILEON SYLVAIN    COLY          1044907510110020812401091932CENTRE PEYTAVIN
443877EPAPE SEYDOU     MBODJI        1044559210110020209201091932CENTRE PEYTAVIN
444132DGEOFFROYE HERVE MANDIONE      1044566110110021037301091932CENTRE PEYTAVIN
444828JAISSATOU        SENE          1043961810110014312501091932CENTRE PEYTAVIN
446596DTHIEYACINE      NDAW          1047202510110016540001091932CENTRE PEYTAVIN
446969FPAPA BASSIROU   FAYE          1038695710110011521801091932CENTRE PEYTAVIN
509745FMBEURIKA        DIENG         00000007911R0024405701091932CENTRE PEYTAVIN
518483MAISSATOU        GUEYE         1037815910110017902601091932CENTRE PEYTAVIN
656127ABIRAME          NDONG         1042147710110016229201091932CENTRE PEYTAVIN
412674BLOUIS           TINE          1034284910110019795801091932CENTRE PEYTAVIN
445228CIBRAHIMA        NDIAYE        1044803710110012521801091932CENTRE PEYTAVIN
440751CIBRAHIMA        THIAM         1042291110110011762001091932CENTRE PEYTAVIN
440783BIBRAHIMA        NDAO          1042143010110015780201091932CENTRE PEYTAVIN
059989FMALAMINE        COLY          0000026348/F0405610801091932CENTRE PEYTAVIN
403365ERIGOBERT        COLY          0000000255810528000001091932CENTRE PEYTAVIN
404831BYAFAYE          BAYO          0000053352/H0042568501091932CENTRE PEYTAVIN
405117BANSOUMANA       MANDIANG      45755A      0030612501091932CENTRE PEYTAVIN
406832CADAMA           SAM           1040969810110032805101091932CENTRE PEYTAVIN
407024IISMAILA         SALL          0000050430/G0025762701091932CENTRE PEYTAVIN
409543IIBRAHIMA        FALL          0000054357/A0030193901091932CENTRE PEYTAVIN
410771BNGAGNE          DIBA          0000051327/G0027893501091932CENTRE PEYTAVIN
412492HEL H ISSAKHA C  KANTE         0000048123/Z0031939801091932CENTRE PEYTAVIN
412746DMAMADOU S       DIEME         1034595210110022037901091932CENTRE PEYTAVIN
431130DMOUHAMED        FAYE          0033473410110025310901091932CENTRE PEYTAVIN
431332ZHYACINTE        BIAGUI        0367870001010028057501091932CENTRE PEYTAVIN
435168CLOUIS M N       NIOUKY        1048967310110012670701091932CENTRE PEYTAVIN
435522AMALICK          DIAMANKA      1035731310110020012401091932CENTRE PEYTAVIN
437457BSIDYA           SAGNA         1045301810110011157001091932CENTRE PEYTAVIN
394212EOUSSEYNOU       DIONGUE       1041049310120025006901091932CENTRE PEYTAVIN
406604ZGASTON ANDRE    COLY          0000052286/Z0028034401091932CENTRE PEYTAVIN
407298JBOUBACAR        NDONG         0000049945/E0022094801091932CENTRE PEYTAVIN
407763GDEURGUEUNE      DIOUF         0000049202/X0033564401091932CENTRE PEYTAVIN
409499IDJIBRIL         DIAGNE        0000051681/S0030002901091932CENTRE PEYTAVIN
410083HMBAYE           GUEYE         0000051212/G0029889701091932CENTRE PEYTAVIN
410732CMOUHAMED SIDY   OUATTARA      0000050614/G0025755401091932CENTRE PEYTAVIN
412303AFORMOZE A B     BIAYE         0000054689/L0018268901091932CENTRE PEYTAVIN
412518GMOUSSA          SAMBOU        0000052664/K0023542201091932CENTRE PEYTAVIN
412519HALAIN CHRISTIAN MALOU         0000053714/B0017077701091932CENTRE PEYTAVIN
414703CABDOU           SAMBE         0000065760/V0033855601091932CENTRE PEYTAVIN
433521ZSADIO           SONKO         1041737510110019788701091932CENTRE PEYTAVIN
434237AMAHAWA          GUEYE         1037162810110010917901091932CENTRE PEYTAVIN
436932ABALLA MOUSSA    DIALLO        1036383910110017048001091932CENTRE PEYTAVIN
436957DARTHUR ANTOINE  SAGNA         1040552810110024095401091932CENTRE PEYTAVIN
439157GNABANI          DIEDHIOU      1044081210110011033601091932CENTRE PEYTAVIN
439312FDIDIER          KANFANY       1044230010110009769301091932CENTRE PEYTAVIN
439503BMOUSSA          SANE          1040550110110011033601091932CENTRE PEYTAVIN
439537AMAMADY          COLY          1041424910110011083601091932CENTRE PEYTAVIN
444740AABDOULAYE       SARR          1044202910110010592801091932CENTRE PEYTAVIN
445289BMASSE           THIOUB        1047098810110011938701091932CENTRE PEYTAVIN
445451ESOULEYMANE      DIEME         1041821110110010592801091932CENTRE PEYTAVIN
445454BMOR             FALL          1046250510110012356001091932CENTRE PEYTAVIN
445837GBACARY          DIEDHIOU      1044504910110010592801091932CENTRE PEYTAVIN
397653CABDOURAHMANE    NDIAYE        0000000188880375000001091932CENTRE PEYTAVIN
404210GDOUDOU          SENE          1042689810110037448401091932CENTRE PEYTAVIN
404430GSERIGNE         DIA           0368707001010038702201091932CENTRE PEYTAVIN
404741DSOURA           SOUARE        1044539810110039877401091932CENTRE PEYTAVIN
405118AMAMADOU YERO    SOUARE        1047622110110032153101091932CENTRE PEYTAVIN
405130KBALLA           DIOP          1042048210110082741501091932CENTRE PEYTAVIN
405439AJACQUES F       MANGA         0062650001010033775901091932CENTRE PEYTAVIN
406179GIBRAHIMA        DIEDHIOU      0000054333/Z0035795801091932CENTRE PEYTAVIN
406441IOUMAR           SANE          0000050771/C0034783401091932CENTRE PEYTAVIN
406778BINSA            SAGNA         1034011010110029448201091932CENTRE PEYTAVIN
406908GMAMADOU SALIF   MANE          0000052334/B0031240501091932CENTRE PEYTAVIN
407074NEMILE           COLY          0061904001010020371301091932CENTRE PEYTAVIN
407089JABDOU           NDIAYE        0000050770/B0035837901091932CENTRE PEYTAVIN
407223HOUSMANE         DIOUF         0000055407/S0035449601091932CENTRE PEYTAVIN
407479EADRAME          LY            0000049413/B0034776901091932CENTRE PEYTAVIN
407506ZEL HADJI MATAR  BADJI         0000050801/K0027693801091932CENTRE PEYTAVIN
407667DSIDY            DIATTA        0000053387/W0025631401091932CENTRE PEYTAVIN
407971HABDOULAYE       SOW           0062152001010032013101091932CENTRE PEYTAVIN
409079KCHEIKH          DIAKHATE      0000052711/L0028370301091932CENTRE PEYTAVIN
409784JMOUSTAPHA       DIATTA        0000050921/R0031533601091932CENTRE PEYTAVIN
410568DLAMINE          BADJI         0369520001010032752101091932CENTRE PEYTAVIN
411141FDIEGANE         NDONG         0000049414/C0032732801091932CENTRE PEYTAVIN
411279ZCHEIKHOU OUMAR  DJIGO         0000052936/J0043000501091932CENTRE PEYTAVIN
411325BADRIEN          ADIOYE        0000054287/Z0020325901091932CENTRE PEYTAVIN
411353COUSMANE         SECK          0000050979/D0031629201091932CENTRE PEYTAVIN
411604FATABOU          COLY          0000054682/D0034618001091932CENTRE PEYTAVIN
412099EBACARY SIDY     KAMBAYE       1046245310110022622101091932CENTRE PEYTAVIN
412147ADAGA            DIOP          1040197010110037872201091932CENTRE PEYTAVIN
412204ASALIOU          FAYE          0000049868/W0025807501091932CENTRE PEYTAVIN
413715ESAMBA           MANGARA       1042803710110024281701091932CENTRE PEYTAVIN
413947FDJIBRIL         TOURE         0000055393/B0021747201091932CENTRE PEYTAVIN
413960CYAYA            BADJI         0000059684/R0010649101091932CENTRE PEYTAVIN
414418DGABRIEL         NDOUR         1034778210110015489101091932CENTRE PEYTAVIN
430677EEL HADJI DIOUF  CAMARA        63065R      0016877201091932CENTRE PEYTAVIN
430758IELHADJI CHEIKH ANDIOUR        0000063044/T0015489101091932CENTRE PEYTAVIN
431120CYOUSSOUF        BADJI         1040158810110030445801091932CENTRE PEYTAVIN
431482DOUSMANE DIENE   NDAO          1040161810110023135801091932CENTRE PEYTAVIN
432131DPAPE NGOUDA     BA            1040650210110032985801091932CENTRE PEYTAVIN
433156BIBRAHIMA        SARR          1043317110110015018801091932CENTRE PEYTAVIN
434088EDEMBO           SAMOURA       1034941210110023577501091932CENTRE PEYTAVIN
434669DMAMADOU LAMINE  DIEME         1038034110110016877201091932CENTRE PEYTAVIN
437016CMOUSSA          GAYE          1043374010110013993801091932CENTRE PEYTAVIN
437017BJEAN DJILASSE   BIAYE         1037303110110009839501091932CENTRE PEYTAVIN
437019ZABY             DIOUF         1041435710110011785401091932CENTRE PEYTAVIN
437524ABABACAR         FAYE          1037966610110011118001091932CENTRE PEYTAVIN
442046ZABABACAR WARA   DIOP          1043695610110015474401091932CENTRE PEYTAVIN
509743HASTOU           SOUGOU        48528P      0025591201091932CENTRE PEYTAVIN
368659EEMILE CESAR     COLY          0000000329130264000001091932CENTRE PEYTAVIN
404718FMBAYE           FALL          0000049880/J0046173101091932CENTRE PEYTAVIN
404763DEMMANUEL        WAZ           0378544001010039847201091932CENTRE PEYTAVIN
405246EALIOUNE         NDIAYE        0000055560/H0037805701091932CENTRE PEYTAVIN
405964BARONA           MANGA         0000052634/C0040872301091932CENTRE PEYTAVIN
409691OCHEIKH OUSMANE  NDIAYE        0000051646/D0031955201091932CENTRE PEYTAVIN
413323BPAPA OUMAR      FALL          0000051985/X0026418201091932CENTRE PEYTAVIN
413887AMAMADOU LAMINE  SADIO         0000055277/A0027454301091932CENTRE PEYTAVIN
414683FBABACAR MBAYE   DIOUF         1033532310110025631901091932CENTRE PEYTAVIN
433285EMAMADOU         CISS          1036472810110020527701091932CENTRE PEYTAVIN
433822DDABA            DIENG         1044902310110023962101091932CENTRE PEYTAVIN
433934FMANSOR          THIOUNE       1044972510110024196401091932CENTRE PEYTAVIN
433936HFATOU NGOFF     SARR          1043960810110018526101091932CENTRE PEYTAVIN
439194NBIRAME          NDIAYE        1042996410110015001201091932CENTRE PEYTAVIN
439604ZABDOU LAHAT     DIA           1040530910110010107401091932CENTRE PEYTAVIN
439605ASALIF           NDIAYE        1040530210110009699701091932CENTRE PEYTAVIN
439609EDJIBY           DIARRA        1036391210110015388701091932CENTRE PEYTAVIN
440510DMOUSSA          SY            1042797510110013032001091932CENTRE PEYTAVIN
441997FOUMAR           DIOUF         1047029210110010592801091932CENTRE PEYTAVIN
442010CMEDAR NIOKHOR   FAYE          1042469810110012161001091932CENTRE PEYTAVIN
443092JSERIGNE MBAYE   BA            1047550010110011395601091932CENTRE PEYTAVIN
443094HADAMA AWA       DIALLO        1041458310110010849901091932CENTRE PEYTAVIN
445306DAMETH           GOUDIABY      1045536010110007172601091932CENTRE PEYTAVIN
445307ESOULEYMANE      COLY          1045535810110011022201091932CENTRE PEYTAVIN
445309GMAMADOU         LOUM          1047778510120010592801091932CENTRE PEYTAVIN
445349CMAMADOU         SALL          1047430710110007622201091932CENTRE PEYTAVIN
447818HNDEYE FATOU     CISSE         1047184810110011161001091932CENTRE PEYTAVIN
447820ADJIBY           DIOP          1047624310110010592801091932CENTRE PEYTAVIN
447821ZMOUSSA          DIOP          1047006510110010592801091932CENTRE PEYTAVIN
447823BIBRAHIMA        TOURE         1048028410110010661001091932CENTRE PEYTAVIN
411411ZMAMADOU         LO            0000054084/D0020164501091932CENTRE PEYTAVIN
430034ZIDRISSA         DIEDHIOU      1034433610110022373301091932CENTRE PEYTAVIN
368063HYOUNOUSS        GOUDIABY      33026P      0921000001091932CENTRE PEYTAVIN
406971GBABOUCAR        DIATTA        0000053640/W0033312601091932CENTRE PEYTAVIN
407415CJULBERT         KADIMPEUL     0372693001010042407001091932CENTRE PEYTAVIN
407794IDJIBRILOU       FALL          0000049391/C0038285201091932CENTRE PEYTAVIN
409567GBIENVENU G R    NIOUKY        8443U       0039903901091932CENTRE PEYTAVIN
409695KCHEIKH ABDOU K DDIAKHATE      0000051251/Z0024191601091932CENTRE PEYTAVIN
414172KMOUHAMED        NIANG         1033827310110026140801091932CENTRE PEYTAVIN
430970ANDIACK          NGOM          0061895001010024052701091932CENTRE PEYTAVIN
432084GAMY             SADIO         4107521011800020356701091932CENTRE PEYTAVIN
432124ZABSA            CISS          1035141210110026424401091932CENTRE PEYTAVIN
434818JMOMAR           FAYE          1043987710110026211501091932CENTRE PEYTAVIN
435016APAPE AMADOU MATACAMARA        1036376410110024145801091932CENTRE PEYTAVIN
436389CNDEYE ASTOU     NIANG         1033459110110006382501091932CENTRE PEYTAVIN
445033EBOURE           SENE          1047649110110010592801091932CENTRE PEYTAVIN
398328GMAMADOU         DIEDHIOU      0000000358290363000001091932CENTRE PEYTAVIN
406170PPAPA SAMBA      MBAYE         0000051432/W0031907401091932CENTRE PEYTAVIN
406478EIDRISSA         BODIAN        0000053647/D0038303601091932CENTRE PEYTAVIN
407648AIBRAHIMA        FALL          0000057740/C0036674101091932CENTRE PEYTAVIN
411068BCHEIKH OUSSEYNOUWADE          0000059718/C0022488101091932CENTRE PEYTAVIN
413464DOUSMANE         BALDE         1033943410110029284901091932CENTRE PEYTAVIN
414652DSECKOU          SEYDI         0000058419/R0028665401091932CENTRE PEYTAVIN
414840CMAME ASSANE     SECK          0062524001010019090601091932CENTRE PEYTAVIN
405503AMOUSSA          NIANG         1042141710110036752101091932CENTRE PEYTAVIN
407165KMAMADOU LAMINE  THIAM         0062645001010038776001091932CENTRE PEYTAVIN
433297DBABACAR         NGOM          1034360410110011965601091932CENTRE PEYTAVIN
436896BABDOULAYE BEN MOGUEYE         1047675910110011033601091932CENTRE PEYTAVIN
442860ZALASSANE DJIGO KSEYDI         1046762910110013032001091932CENTRE PEYTAVIN
443080KOUSMANE         BADJI         1043990010110012161001091932CENTRE PEYTAVIN
445743ACLEDOR          DIATTA        1046819810110010592801091932CENTRE PEYTAVIN
445744BIBRAHIMA SOLO   DACOST        1046284810110009592801091932CENTRE PEYTAVIN
406508CMOUSSA          NDIAYE        0000059474/M0034096401091932CENTRE PEYTAVIN
410292HMAME AE         DIAGNE        0371710001010031312101091932CENTRE PEYTAVIN
413153GJAQUES          MANDINE       0369943001010016121101091932CENTRE PEYTAVIN
413848FLOUIS PETJIMANE MENDY         1045072410110026813901091932CENTRE PEYTAVIN
414295IHERMAN FABRICE  MANGA         0062722001010019912901091932CENTRE PEYTAVIN
430354AMBAYE           NGOM          0012434001010028086701091932CENTRE PEYTAVIN
431392FHAMIDOU         COULIBALY     0369945001010014754801091932CENTRE PEYTAVIN
432373DNDEYE AWA       FAYE          0037865110110015834001091932CENTRE PEYTAVIN
432883ZBIRAME          SENE          1047939410110018057301091932CENTRE PEYTAVIN
435330FMAMADOU SARR    NIASSY        1043085510110016544101091932CENTRE PEYTAVIN
437752DTIDIANE         FAYE          1040151810110016779301091932CENTRE PEYTAVIN
437762EMAMADOU DIOUF DIBOB           1041720410110015827401091932CENTRE PEYTAVIN
439289GMALICK          NDIAYE        1040157910110008605601091932CENTRE PEYTAVIN
439589DOUSMANE         FAYE          1040561410110011576001091932CENTRE PEYTAVIN
445668CBASILE SIMALIDIEMANGA         1046483410110008592801091932CENTRE PEYTAVIN
059982AMALICK          DIOP          00000032899B0687000001091932CENTRE PEYTAVIN
403574EMAMADOU         DIOP          0371277001010039486701091932CENTRE PEYTAVIN
404997ASALOMON         DIEME         0000054049/R0041104301091932CENTRE PEYTAVIN
405005DTIDIANE MAMADOU DIA           0000055462/B0035040701091932CENTRE PEYTAVIN
405022IOMAR            CISSE         0000053121/G0041183101091932CENTRE PEYTAVIN
405887BABDOU KANTON    COLY          0000052314/E0032415601091932CENTRE PEYTAVIN
406866BABDOULAYE       KA            0000053395/E0038259201091932CENTRE PEYTAVIN
407003HVALENTIN        CISSE         0000049917/Z0026312501091932CENTRE PEYTAVIN
407010LSIMON PIERRE    COLY          0000049972/J0033599501091932CENTRE PEYTAVIN
407314EEL HADJI MALICK GUEYE         0375121001010027681201091932CENTRE PEYTAVIN
407382NJACQUES DIEGANE NDONG         00000055485B0024434101091932CENTRE PEYTAVIN
407408ASYAKA           SARR          0363165001010037732401091932CENTRE PEYTAVIN
407977BRAYMOND         SENGHOR       0000053599/B0029122201091932CENTRE PEYTAVIN
410789ERAYMOND         THIAW         0000051732/X0029618201091932CENTRE PEYTAVIN
411776BMAMADOU         SARR          0368521001010026844301091932CENTRE PEYTAVIN
411777CMOTH            SEMBENE       0368426001010023699301091932CENTRE PEYTAVIN
412120FABDOUL          BA            058668/L    0028518501091932CENTRE PEYTAVIN
412366BSERIGNE MBAYE   MBOW          0000054536/V0035241901091932CENTRE PEYTAVIN
412830ZACHILLE         ASSINE        0000751610110024859501091932CENTRE PEYTAVIN
413664BFAMARA          MANE          0000053543/R0024899301091932CENTRE PEYTAVIN
430263BMASSAMBA        NDOYE         064930T     0019733901091932CENTRE PEYTAVIN
431142CBENJAMIN M D DJ DIALLO        1047939710110011125001091932CENTRE PEYTAVIN
432248CSIDY MOHAMED    THIOYE        0377004001010015803101091932CENTRE PEYTAVIN
432562BDJIB            FALL          1024504210110021649401091932CENTRE PEYTAVIN
433722CSALIF           DIENG         1034494610110014476001091932CENTRE PEYTAVIN
434073IADAMA           KEITA         1037573691010014501101091932CENTRE PEYTAVIN
434077ECOUMBA          TOURE         1038631010110021632801091932CENTRE PEYTAVIN
435265EPAPA MAMADOU M  DIOP          0032887210110014395801091932CENTRE PEYTAVIN
435273HPAPE BOYLI      SY            1046998110110015088801091932CENTRE PEYTAVIN
435969FANSOU           SOUMARE       0037416610110019243801091932CENTRE PEYTAVIN
435971CAMADOU          SOW           1041364310110013497301091932CENTRE PEYTAVIN
436336AANDRE           TENDENG       1038577010110012780101091932CENTRE PEYTAVIN
436984BMOUSSA          MOUSSA KANTE  1036382210110023383101091932CENTRE PEYTAVIN
436987AMARIEME         GAYE          1040140710110015161101091932CENTRE PEYTAVIN
439299HLAMINE          NDONG         1035522210110010849901091932CENTRE PEYTAVIN
439300GWALY            FAYE          1036403910110009849901091932CENTRE PEYTAVIN
439307ZMOUSSA          DIALLO        1041734710110009842801091932CENTRE PEYTAVIN
439356FSIDY            FAYE          1036110910110009849901091932CENTRE PEYTAVIN
439357EDJIBANE         DIOUF         1036278110110014777401091932CENTRE PEYTAVIN
439359CBECAYE          BADJI         1036129010110010490801091932CENTRE PEYTAVIN
441346DCHEIKH TIDIANE JSANE          1036743210410010849901091932CENTRE PEYTAVIN
441349GJAQUELINE NABOU FAYE          1047166810110016395601091932CENTRE PEYTAVIN
441356CJUSTIN          MALOU         1036743310210010099901091932CENTRE PEYTAVIN
441556EMOR TALLA       DIOP          1047039910110024435401091932CENTRE PEYTAVIN
442835HPAPA OGO SALLA  DIOP          1036644810110015029501091932CENTRE PEYTAVIN
442841CPAPE SOULEYMANE SANE          1043032710110010849901091932CENTRE PEYTAVIN
442842DDIMITRI         MINGOU        1042695410110012395601091932CENTRE PEYTAVIN
443134AEL HADJI        SARR          0037742210510015476001091932CENTRE PEYTAVIN
445000EFALILOU         FAYE          1047016110110010592801091932CENTRE PEYTAVIN
445002CARNOLD          DIATTA        1047014810110010592801091932CENTRE PEYTAVIN
445344BNDEYE MAREME    NDOYE         1045286510110016547701091932CENTRE PEYTAVIN
445673CBALLA MOUSSA    BADJI         1042320710110009592801091932CENTRE PEYTAVIN
445675AJONAS           SAMBOU        1042319610120009592801091932CENTRE PEYTAVIN
447293KLANSANA         DIATTA        1047211410110010028601091932CENTRE PEYTAVIN
447294JSEYDOU          DIAW          1047400810110010592801091932CENTRE PEYTAVIN
059974BDJIBRIL         MBODJI        0000000274770473850001091932CENTRE PEYTAVIN
404003EMAMADOU SARR    GUEYE         0368570001010035887301091932CENTRE PEYTAVIN
404832AMAMADOU         GUEYE         1047031410110032822201091932CENTRE PEYTAVIN
406297JMAMADOU         SANE          0000060064/D0036356401091932CENTRE PEYTAVIN
408636CMALICK LOUIS A  DIEDHIOU      0000052393/R0028572601091932CENTRE PEYTAVIN
412350GOUSMANE         FAYE          0000050970/U0082249701091932CENTRE PEYTAVIN
414033GPAUL SIGANI     NIAFOUNA      0014715001010020259101091932CENTRE PEYTAVIN
430509MOUSMANE         FAYE          0370226001010027185001091932CENTRE PEYTAVIN
433185FFATOUMATA BINTOUDIALLO        1040520610110017101101091932CENTRE PEYTAVIN
433242DMAMOUR          FALL          1033451910110029400501091932CENTRE PEYTAVIN
433542ASOULEYMANE      SENE          1034456010110021688501091932CENTRE PEYTAVIN
433981BGODOFROID       MANGA         1040542710110020993801091932CENTRE PEYTAVIN
434821BHERMANN KOULY   TINE          0031897310110025230501091932CENTRE PEYTAVIN
437263IMBAYE           KEBE          1037146610110011033601091932CENTRE PEYTAVIN
437438AMAYONY          NGOM          1037561410110014777401091932CENTRE PEYTAVIN
404588CBABACAR         LO            0000050029/W0038070001091932CENTRE PEYTAVIN
405779ZHAMAD           SENE          0000051404/R0036000601091932CENTRE PEYTAVIN
406236EALPHONSE WALY   FAYE          0000059568/P0037758401091932CENTRE PEYTAVIN
406865CEL HADJI        GUEYE         1045033610110037750801091932CENTRE PEYTAVIN
406868ZBERNARD         GOUDIABY      0000054986/J0035588201091932CENTRE PEYTAVIN
406871HPATERNE         SAMBOU        0000053951/J0028601801091932CENTRE PEYTAVIN
407249DALASSANE        NIANE         49799/W     0018719301091932CENTRE PEYTAVIN
409256JYOUSSOUPHA      DIALLO        0370916001010031811801091932CENTRE PEYTAVIN
430816LMAMADOU         BA            1043370410110020269901091932CENTRE PEYTAVIN
434827HIBRAHIMA        BODIAN        0031901510110027046301091932CENTRE PEYTAVIN
439669AMEISSA          NDIAYE        0037811710110046491001091932CENTRE PEYTAVIN
394242BMOUHAMADOU MOUSTGUEYE         0062489001010030681401091932CENTRE PEYTAVIN
409248GDAOUDA          MBAYE         0000053401/L0033189601091932CENTRE PEYTAVIN
433928KALIOU           DIEME         1035981710110015727401091932CENTRE PEYTAVIN
435019BCHARLES         NDONG         1035968910110018337001091932CENTRE PEYTAVIN
435024DMOUSSA          KEITA         1035536610110018023001091932CENTRE PEYTAVIN
436784DMAMADOU BOUSSIRIDIALLO        1036729910110010932501091932CENTRE PEYTAVIN
409686ISIMON           ASSINE        0000050903/W0029268601091932CENTRE PEYTAVIN
411766CMAMADOU         BA            0000050728/F0034498101091932CENTRE PEYTAVIN
412939JSAMBARE         DIOUF         0000051596/Z0027507801091932CENTRE PEYTAVIN
412986BOUMAR           BALDE         0000051595YZ0018257901091932CENTRE PEYTAVIN
413421CIBRAHIMA        DIALLO        1024609010110022688201091932CENTRE PEYTAVIN
414940BBOUBACAR        NGOM          0000065742/A0030096001091932CENTRE PEYTAVIN
431900GIDRISSA         SONKO         1037172910110015352501091932CENTRE PEYTAVIN
434331DANTOINE         DIATTA        1035736410110023529601091932CENTRE PEYTAVIN
437360KMOUSSA          MBALLO        1037167810110012618701091932CENTRE PEYTAVIN
437888ZMAMADOU ALY     DIOP          1038272310110014357401091932CENTRE PEYTAVIN
437890IMAMADOU LAMINE  SECK          1041804510110013383401091932CENTRE PEYTAVIN
437892GILARION         DJIBA         1042720610110010033601091932CENTRE PEYTAVIN
439222HMARCELIN BASS   DIATTA        1040649010110017078001091932CENTRE PEYTAVIN
439546CCORNELLE        DIEDHIOU      1042033810110010092701091932CENTRE PEYTAVIN
441451AIDRISSA         BODIAN        1042491410110010842401091932CENTRE PEYTAVIN
443126BALASSANE        NDIAYE        1037622610110010592801091932CENTRE PEYTAVIN
443133BCHEIKH OMAR     COLY          1043336710110010849901091932CENTRE PEYTAVIN
443147APIERRE BABACAR PSENGHOR       1048375210110011161001091932CENTRE PEYTAVIN
444634CSEYDINA OUMAR   DIALLO        1038374610110010849901091932CENTRE PEYTAVIN
444635DISMAILA         SAGNA         1043838910110011022201091932CENTRE PEYTAVIN
445165EPAPE            NIANE         1047626210110007894401091932CENTRE PEYTAVIN
445169AISMAILA         SANE          1047010810610010092801091932CENTRE PEYTAVIN
445875AMAMADOU         SAMB          1046837810610010592801091932CENTRE PEYTAVIN
447755ZDAOUDA          SARR          1047433110610009592801091932CENTRE PEYTAVIN
437224DBENJAMIN        DIATTA        1047489510110013961101091932CENTRE PEYTAVIN
441647HISSA            NDIAYE        1036876510110008796901091932CENTRE PEYTAVIN
059986CMAMADOU LAGLAISECISSE         0000000030280426000001091932CENTRE PEYTAVIN
404733AAMADOU TIDIANE  BALDE         1036658710110021705601091932CENTRE PEYTAVIN
407401FBECAYE          KEITA         0031763010110039811801091932CENTRE PEYTAVIN
414272JJEAN CYPRIEN    BANDIAKY      0000057221/N0022964401091932CENTRE PEYTAVIN
430086CCHERIF          DIALLO        0372318001010028846201091932CENTRE PEYTAVIN
430136CLANDING         COLY          1024833710110028608401091932CENTRE PEYTAVIN
430400CMOUSTAPHA       NDOYE         0367476001010020914701091932CENTRE PEYTAVIN
431229GSOUAIBOU        BADJI         0374278001010015011101091932CENTRE PEYTAVIN
434873AYVES LATYR      NDIONE        1037619010110026090801091932CENTRE PEYTAVIN
435440FSIACA           BODIAN        1037915010110015998801091932CENTRE PEYTAVIN
436213CIBRAHIMA        GUEYE         1041445710110012491601091932CENTRE PEYTAVIN
436854ZBOUBACAR        BALDE         1036122610110016048001091932CENTRE PEYTAVIN
436952AISMAILA         DIAHAM        1045685010110014048701091932CENTRE PEYTAVIN
436953ZSENGHANE        SARR          1047121510110015827401091932CENTRE PEYTAVIN
437535AIBRAHIMA        DIALLO        1042493310110012532001091932CENTRE PEYTAVIN
437910ZSALIOU          DIALLO        1045757210110014463901091932CENTRE PEYTAVIN
438001HJEAN SIMON      SAMBOU        1041853510110010542401091932CENTRE PEYTAVIN
439577EFODE            SARR          1042054510110013850301091932CENTRE PEYTAVIN
441381EREMY            DIATTA        1042694510110010849901091932CENTRE PEYTAVIN
441383CMOUSTAPHA       SARR          1046417010110009092401091932CENTRE PEYTAVIN
441386ZPAPE YANKHOBA   DIAGNE        1042161910110009107401091932CENTRE PEYTAVIN
441387ALAMINE          NGOM          1042670410110008755601091932CENTRE PEYTAVIN
441388BDAOUDA          SENE          1044673210110010849901091932CENTRE PEYTAVIN
441392EMAMADOU         GUEYE         1042325610110013962001091932CENTRE PEYTAVIN
441558GSAMBA           SECK          1046494110110011092401091932CENTRE PEYTAVIN
441560BBIRAME          DIOME         1042492510110011782001091932CENTRE PEYTAVIN
444729JIBRAHIMA        DIOUF         1046651710110011819301091932CENTRE PEYTAVIN
445662CIBRAHIMA        BIAYE         1046516810110007694401091932CENTRE PEYTAVIN
434671EGILBERT         KAMBANKE      1042445810110023265801091932CENTRE PEYTAVIN
441874DIBRAHIMA KALILOUBADJI         1043982010110007656901091932CENTRE PEYTAVIN
441879ICHEIKH          MBODJI        1044021810110010849901091932CENTRE PEYTAVIN
441880AABDOULAYE       MBODJI        1043981410110010099901091932CENTRE PEYTAVIN
441881ZAL ASSANE       DIAGNE        1043982110110008151501091932CENTRE PEYTAVIN
441885DASSANE          GOUDIABY      1043999410110007664401091932CENTRE PEYTAVIN
059977EABDOULAYE K     DIALLO        00000002589F0402000001091932CENTRE PEYTAVIN
407291QOUMAR           DIEDHIOU      0000051979/R0037448401091932CENTRE PEYTAVIN
409999DMATAR           THIOBANE      0000050570/J0026863701091932CENTRE PEYTAVIN
410594CDIATTA          LEYE          0000050151/D0033819901091932CENTRE PEYTAVIN
410605HSOULEYMANE      WADE          0000052219/B0025354801091932CENTRE PEYTAVIN
412331DARONA           NDOUR         0000056947/R0030097001091932CENTRE PEYTAVIN
412682EOUMAR           SANE          0000055120/E0016066901091932CENTRE PEYTAVIN
413476CIBRAHIMA        BA            0000056940/H0025064001091932CENTRE PEYTAVIN
430197BLANSANA         MANDIANG      0000056959/D0015397801091932CENTRE PEYTAVIN
430314ESENY            SENGHOR       0000056455/F0030945401091932CENTRE PEYTAVIN
432963CHENRY           DIATTA        1035596210110013468801091932CENTRE PEYTAVIN
432969IBASSIROU        MANE          1034954210110015472001091932CENTRE PEYTAVIN
433781DPIERRE SYLVESTREFAYE          1038288510110010881001091932CENTRE PEYTAVIN
435207CNDIAGA          GNING         1036852710110021404101091932CENTRE PEYTAVIN
435358ZFODE            CISSOKHO      1036737210110018135801091932CENTRE PEYTAVIN
436439CKEBA IBRAHIMA   SAMBOU        1040540810110017687001091932CENTRE PEYTAVIN
436440GMATHIEU BOCADIA DIEDHIOU      1036794410110013638801091932CENTRE PEYTAVIN
437255FABEL AYMARD     SAGNA         1038288410110016041101091932CENTRE PEYTAVIN
437559AABDOULAYE       SARR          1038667910110017579301091932CENTRE PEYTAVIN
437983DPAUL DAVID      BASSENE       1040210310110009333601091932CENTRE PEYTAVIN
439243IFODE            SAMATE        1040172110110014850301091932CENTRE PEYTAVIN
439245GMAME MOCTAR     DIAL          1040146310110029751101091932CENTRE PEYTAVIN
439247EEL HADJI MAGATTESARR          1042797910110012032001091932CENTRE PEYTAVIN
439249CBABACAR         DIOUF         1040210510110016041101091932CENTRE PEYTAVIN
440382CAGUIBOU         DIALLO        1042153610110011033601091932CENTRE PEYTAVIN
440387BHAMADY ABASSE   NDIAYE        1041204710110009887301091932CENTRE PEYTAVIN
440388CPIERRE DIB      NDIAYE        1041550110110012868701091932CENTRE PEYTAVIN
440389DSEYDINA ISSA NDIMBENGUE       1041844810110011033601091932CENTRE PEYTAVIN
440546GALIOU           TRAORE        1041725610110008196301091932CENTRE PEYTAVIN
440550ZABASS           BASSE         1036482810110013618701091932CENTRE PEYTAVIN
440558HALMAMY          DIATTA        1036642910110010991501091932CENTRE PEYTAVIN
440560AMODOU           DIENE         1044640410110007172001091932CENTRE PEYTAVIN
441305GMAMADOU ALIOU   DIALLO        1041527810110007169801091932CENTRE PEYTAVIN
441510CABABACAR KERING DIEME         1044000710110011982401091932CENTRE PEYTAVIN
442896CDEMBO           CISSE         1042992710110011801801091932CENTRE PEYTAVIN
443026AALIOU           SARR          1042793610110008381501091932CENTRE PEYTAVIN
443027BMASSAER         SARR          1044109710110008822301091932CENTRE PEYTAVIN
443693CBABACAR         NDIAYE        1043367310110009592801091932CENTRE PEYTAVIN
445781EAMADOU          SEYDI         1045753410110009318701091932CENTRE PEYTAVIN
445782DABDOULAYE       KEBE          1046528310110010592801091932CENTRE PEYTAVIN
059984AMOUHAMADOU      SOUMARE       0000000233490660000001091932CENTRE PEYTAVIN
435134DOUSSEYNOU       FAYE          1041037210110013980401091932CENTRE PEYTAVIN
406687ETHIELELE        FAYE          1024011510110027417801091932CENTRE PEYTAVIN
409387KBERNARD YANGHA  JACKY         1035275310110022532601091932CENTRE PEYTAVIN
412257ABOCAR KALIDOU   SOW           0000060087/D0023820301091932CENTRE PEYTAVIN
430309KMOUSSA          THIARE        0000060717/N0027609401091932CENTRE PEYTAVIN
433632AIDRISSA         DIEME         1043269910110010295101091932CENTRE PEYTAVIN
440397AOUDY            DJIBA         1036647210110009349901091932CENTRE PEYTAVIN
440399CCHEIKH          THIAO         1037710810110010533601091932CENTRE PEYTAVIN
447374GEL HADJI        SARR          1047480610110011029701091932CENTRE PEYTAVIN
059983ZMAODO M         NDAO          0000000250480489150001091932CENTRE PEYTAVIN
394197AMOUSSA          BA            1032926210110027562401091932CENTRE PEYTAVIN
403451GIBRAHIMA        BADJI         0000054955/A0039728301091932CENTRE PEYTAVIN
403480KMAME DAOUR      SECK          0000065759/U0039314301091932CENTRE PEYTAVIN
404719GLATYR           DIOUF         0000050707/H0035932701091932CENTRE PEYTAVIN
405441HABDOU           SONKO         0000053585/L0026667801091932CENTRE PEYTAVIN
406113GSADIBOU         DIAW          13234B      0030065601091932CENTRE PEYTAVIN
406167HMASSAR          SADIO         0000053750/R0033780401091932CENTRE PEYTAVIN
406333GMOUSSA          SANKHARE      1032868210110033833301091932CENTRE PEYTAVIN
406994FSEYDOU          KANE          0000051776V 0035949401091932CENTRE PEYTAVIN
407872HDJIBRIL         SANE          64229F      0031257001091932CENTRE PEYTAVIN
407976CLEOPOLD CHARLES SAMBOU        0000051749/R0028266101091932CENTRE PEYTAVIN
409455ILAMINE          SAMBOU        0000054189/T0025629201091932CENTRE PEYTAVIN
409993JMOUSSA          SENGHOR       0000048827/P0033161401091932CENTRE PEYTAVIN
410503EKHALIDOU        DIAW          0000060343/G0025278101091932CENTRE PEYTAVIN
410801FLAITY           DIENG         0062104001010027922601091932CENTRE PEYTAVIN
412327CMEDOUNE         FALL          0000053962/W0026718201091932CENTRE PEYTAVIN
413550FAIDARA          SAMBA         0000055414/Z0030426701091932CENTRE PEYTAVIN
414144FISMAILA         SARR          0061995001010026135301091932CENTRE PEYTAVIN
430083FMOUR            SECK          0000059591/P0014932901091932CENTRE PEYTAVIN
430371DABDOULAYE       SOCK          0061885001010027800701091932CENTRE PEYTAVIN
432849JKHADIME         GUEYE         1032896710110020354901091932CENTRE PEYTAVIN
432851ACOLY            SENGHOR       1035940110110020160101091932CENTRE PEYTAVIN
432862ADJIBRIL         NIASSY        1032901210110013567301091932CENTRE PEYTAVIN
433338DCHEIKH          SAMB          1038256910110019788701091932CENTRE PEYTAVIN
434792EPAPA BABACAR    DIATTE        1035919810110020503301091932CENTRE PEYTAVIN
436841BMAMADOU BOCAR   SARR          1036356610110020328001091932CENTRE PEYTAVIN
059976DMALICK          DIOP          0000032911/P6500000001091932CENTRE PEYTAVIN
403824CMODOU           DIOP          0000059846/S0036383801091932CENTRE PEYTAVIN
404695FALBERT          GOMIS         0000049512/J0039754301091932CENTRE PEYTAVIN
405317ZABDOU AZIZ      BOYE          1036836410110045198301091932CENTRE PEYTAVIN
406013HIBRAHIMA        BIAYE         0000053882/J0037075801091932CENTRE PEYTAVIN
406317AMAMADOU LAMINE  BODIANG       0368408001010023523101091932CENTRE PEYTAVIN
407458DMAMINA          DIATTA        1034355510110029541101091932CENTRE PEYTAVIN
407919FDJIBRIL         DIAGNE        00000007993E0486000001091932CENTRE PEYTAVIN
411405EAHIP            NIANG         1034906410110047441201091932CENTRE PEYTAVIN
430690DEL HADJI MANS M GUEYE         0368729001010025106101091932CENTRE PEYTAVIN
432672BBERNARD         NYAFOUNA      1036498010110020888501091932CENTRE PEYTAVIN
432734EMAMADOU LAMINE  SONKO         1033360010110027167501091932CENTRE PEYTAVIN
433074GMAMADOU         DIALLO        1037953610110027344601091932CENTRE PEYTAVIN
433280JMOUSSA          COULIBALY     1034894010110025890101091932CENTRE PEYTAVIN
437300EMOUSSA          BALDE         1036879410110035352801091932CENTRE PEYTAVIN
441847JABDOULAYE       NDIR          1047228310110013069301091932CENTRE PEYTAVIN
445147AMICHEL AMBROSE  MENDY         1045834710110010773601091932CENTRE PEYTAVIN
437144GIBRAHIMA        BASSE         1041745910110025588501091932CENTRE PEYTAVIN
432194GOUROUFAYE       DIATTA        0376222001010017558501091932CENTRE PEYTAVIN
404896CMASSOGUI        MBAYE         33560V      0035270901091932CENTRE PEYTAVIN
407487HLOUIS           BOUCAL        0000053842/R0027370001091932CENTRE PEYTAVIN
407910CFELIX           DIATTA        0000051223U 0039353201091932CENTRE PEYTAVIN
407920DMAMADOU         SY            00000011629G0384000001091932CENTRE PEYTAVIN
411488ZABDOU           SADIO         0000051558/H0027255801091932CENTRE PEYTAVIN
412970CYOUSSOUPH       SAGNA         0000056951/V0022743901091932CENTRE PEYTAVIN
413304AAMADOU          OUALY         0000054622/N0028929701091932CENTRE PEYTAVIN
413448BEL HADJI MANSOURSALL          0000054242/A0028518501091932CENTRE PEYTAVIN
431617JARONA           DIOUF         1042988110110016132501091932CENTRE PEYTAVIN
432352CFAMARA          DIASSY        1036818310110016475901091932CENTRE PEYTAVIN
434027ZABDOULAYE       NDIAYE        1034929210110018618701091932CENTRE PEYTAVIN
434423ZJOSEPH          DIATTA        1035529010110016489101091932CENTRE PEYTAVIN
434426CSECKOU          DIEDHIOU      1042754010110015377201091932CENTRE PEYTAVIN
434430DALIOU           SONKO         1040661710110021232701091932CENTRE PEYTAVIN
434464CANTOINE         DIOKH         1035877910110011511601091932CENTRE PEYTAVIN
434999DAMADOU          BASSE         1035528910110017096101091932CENTRE PEYTAVIN
436240IYOUSSOUPH       DIATTA        1042490510110015038801091932CENTRE PEYTAVIN
436897AMOUSSA          DIEME         1036002810410012988301091932CENTRE PEYTAVIN
441470DBABOUCAR        BADIANE       1036398010110010849901091932CENTRE PEYTAVIN
441471CSECKOUNA        KEBE          1042059310110010592801091932CENTRE PEYTAVIN
441472BISSA            SANE          1042422110110010592801091932CENTRE PEYTAVIN
441473AFODE            DIOUF         1042454710110009501901091932CENTRE PEYTAVIN
441475AEL HADJI ABDOULADIATTA        1042433910110009582801091932CENTRE PEYTAVIN
441478DPAPE LANDING    DIEME         1043456710110009301901091932CENTRE PEYTAVIN
441479ELAMINE          DAFFE         1041852510110008100901091932CENTRE PEYTAVIN
441480EOUSMANE         DIALLO        1037814410110008079201091932CENTRE PEYTAVIN
441485ZALIOU BADARA    DIATTA        1041840410110010849901091932CENTRE PEYTAVIN
441894BCHEIKH          FAYE          1042708710110008638601091932CENTRE PEYTAVIN
441898FMODOU           YATT          1043693410110010849901091932CENTRE PEYTAVIN
442906MMAMADOU         NDIAYE        1042999810110012395601091932CENTRE PEYTAVIN
442907NALIOUNE         CISSE         1038030210110010849901091932CENTRE PEYTAVIN
442909PDJIBRIL         DIALLO        1042742010110006342201091932CENTRE PEYTAVIN
442910FDIARGA          LO            1042707110110006292201091932CENTRE PEYTAVIN
442911GOUMAR MAMADOU   DIOP          1044079510110012395601091932CENTRE PEYTAVIN
444768EYAYA            SADIO         1043991710410010592801091932CENTRE PEYTAVIN
444771CHAMATH          SARR          1045255810110009849901091932CENTRE PEYTAVIN
445436BOUSMANE         DIOUF         1045785410110012356001091932CENTRE PEYTAVIN
445438DDIARAF          SAGNE         1047022910110010592801091932CENTRE PEYTAVIN
445691GDAOUDA          YATT          1045335110110009842801091932CENTRE PEYTAVIN
445697AABLAYE          FAYE          1048858910110010592801091932CENTRE PEYTAVIN
445825FNDIAGA          THIAM         1045961310210012356001091932CENTRE PEYTAVIN
059980CCHEIKH OMAR     TRAORE        0000033048/N0495000001091932CENTRE PEYTAVIN
402995AMOUSSA BASSE    BA            0000051751/T0031088201091932CENTRE PEYTAVIN
404080PABDOULAYE S     MANGA         0000060558/R0027053501091932CENTRE PEYTAVIN
405580LALIOUNE BADARA  DIOUF         0013788001010033321701091932CENTRE PEYTAVIN
406279FJEAN JACOB MICH GABAIN        0000059480/U0037254901091932CENTRE PEYTAVIN
411062HLAMINE          DIEDHIOU      0371839001010032564201091932CENTRE PEYTAVIN
411448DALASSANE        FAYE          0000059847/T0031219201091932CENTRE PEYTAVIN
412701CJEAN CLAUDE     TAVAREZ       0010014001010024450701091932CENTRE PEYTAVIN
412721ABASSIROU        SECK          00000060070K0039855401091932CENTRE PEYTAVIN
412795BAMETH ASSANE    CISSE         0000060119/N0038992801091932CENTRE PEYTAVIN
413528ESEBASTIEN       NDEYE         1024386310110025702401091932CENTRE PEYTAVIN
413940AARFANG FAMARA   DIATTA        0010090001010022358601091932CENTRE PEYTAVIN
414634ZPAPE ABD BIRAME DIOP          1010754210110015837201091932CENTRE PEYTAVIN
430442AERIC            NIOUKY        1033907610110015346101091932CENTRE PEYTAVIN
430443BMEISSA          TAYE          1033620910110029648101091932CENTRE PEYTAVIN
432580FPAPE MASSAMBA   TOURE         1041036410110049619801091932CENTRE PEYTAVIN
432726HHENRY LUDOVIC   BAMPOKY       3142361011250015739101091932CENTRE PEYTAVIN
433101BOLIVIER MICHEL DSARR          1041233610110019038701091932CENTRE PEYTAVIN
433144CMANSOUR         FAYE          1037930710110019814001091932CENTRE PEYTAVIN
433173GJONAS OUMOBI    KABOU         1038751810110018905301091932CENTRE PEYTAVIN
433842BASSANE          FALL          1036283110110028328801091932CENTRE PEYTAVIN
435194JABDOU           BADIANE       1041449310110023142001091932CENTRE PEYTAVIN
435316BMAPATHE         BESSANE       1041449410110015352501091932CENTRE PEYTAVIN
435320EIBRAHIMA        COULIBALY     1046556310110015114001091932CENTRE PEYTAVIN
435323BSEYDOU          BA            1043307810110023343101091932CENTRE PEYTAVIN
435758DMAME IBRAHIMA   SARR          1047847310110015588801091932CENTRE PEYTAVIN
435761DIBRAHIMA KHALIL DIOUF         1047647110610014706901091932CENTRE PEYTAVIN
435764ACHEIKH          BARRY         1040176310110016907001091932CENTRE PEYTAVIN
436013EASSE            NDIAYE        1041442610110013618701091932CENTRE PEYTAVIN
436018ZOUMAR           SONKO         1047393910110014788801091932CENTRE PEYTAVIN
436024EKEBA            DRAME         1037067210610008753601091932CENTRE PEYTAVIN
436847DCHEIKH TIDIANE  FAYE          1035964610110025395801091932CENTRE PEYTAVIN
437028BPAPA ASSANE     DIEME         1036359510110014396401091932CENTRE PEYTAVIN
437030KANDRE DIOGOYE   DIONE         1042809310110016823001091932CENTRE PEYTAVIN
439199IBASSIROU        BADJI         1040107710110012579301091932CENTRE PEYTAVIN
439201GANTOINE AHOUTY  DIATTA        1038788910110015581101091932CENTRE PEYTAVIN
440467ECYPRIEN ANGE    DIEDHIOU      1036460910110007893501091932CENTRE PEYTAVIN
442867GMOUHAMED        TALL          1047449910110010031101091932CENTRE PEYTAVIN
445048AMBAYE           DIALLO        1046519010110006397301091932CENTRE PEYTAVIN
404533CISMAILA         SAMBOU        0000055574/Y0034821101091932CENTRE PEYTAVIN
407510GADAMA           DIOP          0369109001010028778101091932CENTRE PEYTAVIN
407843DJEAN JOSEPH A   COLY          0000049131/V0035456401091932CENTRE PEYTAVIN
407844COUSMANE         DIEDHIOU      00000502680F0029467401091932CENTRE PEYTAVIN
409477IABDOU SALAM     BA            0375006001010025565601091932CENTRE PEYTAVIN
410418HNGAGNE          NDIAYE        1041437810110030123001091932CENTRE PEYTAVIN
410685ZDJIBRIL         FAYE          0371107001010030064301091932CENTRE PEYTAVIN
413785BABDOULAYE       BADJI         1033749210110031934401091932CENTRE PEYTAVIN
431093HISMAILA BEN     SANE          0334751001010023246601091932CENTRE PEYTAVIN
431132BOMAR            DIA           1042452410110016052501091932CENTRE PEYTAVIN
431754DASSANE          FAYE          1033154010110013157701091932CENTRE PEYTAVIN
433250GISSA            SENE          1033196810110015011101091932CENTRE PEYTAVIN
433812EBAYE SENY       NDIAYE        1043444610110021688501091932CENTRE PEYTAVIN
435049APAPE BOUCAR     SECK          0031826610110026140801091932CENTRE PEYTAVIN
441857IIBRAHIMA        DIOP          1042308510110009849901091932CENTRE PEYTAVIN
441859KOUMAR           MBAYE         1042786510110010592801091932CENTRE PEYTAVIN
441860AMOUHAMADOU LAMINNDIAYE        1043694710110010592801091932CENTRE PEYTAVIN
441861BTHIERNO         DIONE         1042756510110010592801091932CENTRE PEYTAVIN
059985BMOUSTAPHA       DIOUF         0000000240740609000001091932CENTRE PEYTAVIN
439145HABDOU           DIOUF         1038676210110015077401091932CENTRE PEYTAVIN
439149DHAMADOU         MBALLO        1045329910110015907401091932CENTRE PEYTAVIN
444797ACHERIF          DIOUF         1043719810110010592801091932CENTRE PEYTAVIN
059975CSALIOU          GUEYE         0000000022110393000001091932CENTRE PEYTAVIN
403553DMOUSSE MBORE    MBAYE         0000051062/U0027400601091932CENTRE PEYTAVIN
404290OSAMBARE         NDOUR         0000054040/F0039020401091932CENTRE PEYTAVIN
406982GOUSMANE         CAMARA        56507M      0040323101091932CENTRE PEYTAVIN
407101IKE              DIOP          0000054409/G0031907401091932CENTRE PEYTAVIN
407329ANDONGO          FAYE          0000050421/X0033822601091932CENTRE PEYTAVIN
407484KSERIGNE IBRA    DIOP          0000050276/R0024657401091932CENTRE PEYTAVIN
409109CRICHARD VALERE  DACRUZ        1037971210110021925201091932CENTRE PEYTAVIN
409359FBOUBACAR SADA   BA            1036728210110033474401091932CENTRE PEYTAVIN
410031EMOUSSA          COULIBALY     0000040164/Y0033620201091932CENTRE PEYTAVIN
411224ZMOUSSA          DIEDHIOU      0000050815/A0018122301091932CENTRE PEYTAVIN
411485CMALICK          MBODJI        1043658810110033157801091932CENTRE PEYTAVIN
412347AJEAN PIERRE     NDIAYE        0000047299/D0032630201091932CENTRE PEYTAVIN
413238AMAMADOU         DIAW          0000060397/R0025422201091932CENTRE PEYTAVIN
413244DIDRISSA         GUEYE         0000055402/L0030191201091932CENTRE PEYTAVIN
413613BTHIAW PAUL      NDIAYE        63083K      0023381701091932CENTRE PEYTAVIN
430214DPIERRE          FAYE          0000056542/A0028192401091932CENTRE PEYTAVIN
430216FOCTAVE          NZALE         56545D      0027166201091932CENTRE PEYTAVIN
430551ZIBRAHIMA        FAYE          1024568810110024008101091932CENTRE PEYTAVIN
434196GBOUBACAR        SADIO         1038187610110008995801091932CENTRE PEYTAVIN
434285FMAMOUR          MBODJI        1038559810110016268801091932CENTRE PEYTAVIN
434576ACHEIKH          NDIAYE        1042787310110022763401091932CENTRE PEYTAVIN
434661DTOUMANY         THIAM         1038351210110015288801091932CENTRE PEYTAVIN
435135CDAOUDA          DIEDHIOU      1038377410110015959101091932CENTRE PEYTAVIN
436179DALY             THIAM         1042327510110021688501091932CENTRE PEYTAVIN
436181MJEAN            KAO           1038651810110006944101091932CENTRE PEYTAVIN
436331FJEAN PHILIPPE   SAMBOU        1041817710110011829301091932CENTRE PEYTAVIN
436974ASERIGNE MODOU BOGAKOU         1037606510110011026101091932CENTRE PEYTAVIN
436999BAROUNA          DIATTA        1040644610110013417301091932CENTRE PEYTAVIN
437738DALFRED GAEL     MANGA         1038684810110007411001091932CENTRE PEYTAVIN
439281OPAPE DJIBY      DIEDHIOU      1040156110110015600301091932CENTRE PEYTAVIN
439362KOMAR MANOU      SANE          1040289610110008751901091932CENTRE PEYTAVIN
439363JABDOULAYE       SAGNA         1036723510110008335201091932CENTRE PEYTAVIN
439367FTABASKI         BAKHOUM       1040289710110013560301091932CENTRE PEYTAVIN
439376HMAMADOU         DIOP          1040294410110025609001091932CENTRE PEYTAVIN
440562AABDOU           THIOUNE       1041420310110009592801091932CENTRE PEYTAVIN
440563BANDRE           SAGNA         1041430610110007148501091932CENTRE PEYTAVIN
440569HPAPE SALIF NGOR NDONG         1041548110110009525301091932CENTRE PEYTAVIN
440571AALPHONSE        DIOUF         1036830510110007155401091932CENTRE PEYTAVIN
440573AMALANG          BODIAN        1036343810110007089801091932CENTRE PEYTAVIN
440575CDJIBRIL         MANGA         1043702310110007407301091932CENTRE PEYTAVIN
440660ZMOUSSA          DIEDHIOU      1043429810110009842801091932CENTRE PEYTAVIN
440662BMOUSSA          DIOUF         1037137210110010849901091932CENTRE PEYTAVIN
440663CEL-HADJI OUMPA  MENDY         1041524510110009842801091932CENTRE PEYTAVIN
441282EMOUSTAPHA       DIOUF         1041545910110015385301091932CENTRE PEYTAVIN
441582BCHEIKH DAOUR    DIOP          1043429110110008857501091932CENTRE PEYTAVIN
441586BMAMADOU LAMINE  BANE          1043718610110007199901091932CENTRE PEYTAVIN
441587CMAMADOU         NIANE         1042936410110010849901091932CENTRE PEYTAVIN
441588DOMAR            SANE          1038022610110007872201091932CENTRE PEYTAVIN
441589EALIOUNE BADARA  THIAM         1043454110110010592801091932CENTRE PEYTAVIN
441591DKARAMO          DIATTA        1043447110110009849901091932CENTRE PEYTAVIN
441593BFALLOU          NDIAYE        1038035210110011342401091932CENTRE PEYTAVIN
441594AEL HADJI MAMADOUDIALLO        1043421010110010092401091932CENTRE PEYTAVIN
443286CALIOU           LAM           1044076510110011022201091932CENTRE PEYTAVIN
443287BALIOU           FATY          1038380610110009592801091932CENTRE PEYTAVIN
443677CIBRAHIMA        GOUDIABY      1043419410110009092801091932CENTRE PEYTAVIN
443681DSOULEYMANE      BADJI         1043453510110006920201091932CENTRE PEYTAVIN
443683BOMAR            BODIAN        1043448910110008364801091932CENTRE PEYTAVIN
444897BBACARY          DIEME         1045849210110010849901091932CENTRE PEYTAVIN
444899DBABACAR         SENGHOR       1047095510110010592801091932CENTRE PEYTAVIN
444901FSIDY            FAYE          1047470910110010592801091932CENTRE PEYTAVIN
445152GIDRISSA         SAGNA         1041426610110010032801091932CENTRE PEYTAVIN
445157BSENY            DIEDHIOU      1041524210110009592801091932CENTRE PEYTAVIN
446101DELIASSA         BADJI         1043262710110010592801091932CENTRE PEYTAVIN
437100GMOR             DIAGNE        1040463510110015600301091932CENTRE PEYTAVIN
059972ZMOUSSA          FAYE          0000000006010432000001091932CENTRE PEYTAVIN
410601DMATAR           LY            1043393910110038385801091932CENTRE PEYTAVIN
411732BIDRISSA         DIOP          0000051424/M0022240901091932CENTRE PEYTAVIN
412548DGALLO           TOP           0369946001010017626401091932CENTRE PEYTAVIN
440499DMAMADOU SIRIF   NDIAYE        1046994810110013325601091932CENTRE PEYTAVIN
399188BMOUHAMADOU H    LY            0000000126840585000001091932CENTRE PEYTAVIN
404204BGEOFFROY D      BOISSY        00000037175Z0030039401091932CENTRE PEYTAVIN
404507DMAMADOU DIOUHE  DIALLO        0000054521/D0037474401091932CENTRE PEYTAVIN
406490OISSAKHA         FAYE          0061848001010021515801091932CENTRE PEYTAVIN
412659EWALY            FAYE          0000055576/A0029321301091932CENTRE PEYTAVIN
413684DBOURAMA         CISSE         0000055566/P0025709301091932CENTRE PEYTAVIN
431990BGNIMA           DIATTA        1034378810110021726601091932CENTRE PEYTAVIN
435861CMAMADOU         TINE          1038750710110028588801091932CENTRE PEYTAVIN
439624BBAMBA           SECK          1040640910110026089801091932CENTRE PEYTAVIN
441515HAMAD            SAMB          1043381510110006620001091932CENTRE PEYTAVIN
443001BNFALLY          DIATTA        1044238010110006932601091932CENTRE PEYTAVIN
444989FBEULEUP DETHIE  NDAO          1044348210110016394801091932CENTRE PEYTAVIN
445328DMOUHAMADOU LAMINMANGA         1045272710110012161001091932CENTRE PEYTAVIN
445329EBACARY          DIABANG       1045317310110008144401091932CENTRE PEYTAVIN
445445ZTIMONTHE        MANGA         1045332910110009411301091932CENTRE PEYTAVIN
445446ASOULEYMANE      SANE          1046821110110011661001091932CENTRE PEYTAVIN
446103BADAMA           SANE          1046102910110011411001091932CENTRE PEYTAVIN
446104ADANIEL          KANDETY       1047173810110010592801091932CENTRE PEYTAVIN
446105ZTOUSSAINT DENYO LAMBAL        1046103210110010092801091932CENTRE PEYTAVIN
447832ZSIW             BAKHOUM       1047020210110010592801091932CENTRE PEYTAVIN
447833AASSANE          NGOM          1047182510110010592801091932CENTRE PEYTAVIN
394204HABDEL KADER     COULIBALY     0000059589/M0029433401091932CENTRE PEYTAVIN
401756CGUILLAUME       DIONE         0000000104650402000001091932CENTRE PEYTAVIN
405307ABOUBACAR        MANDIANG      0000059757/V0041104301091932CENTRE PEYTAVIN
405732CLAMINE          DIOP          0000051837/L0028322501091932CENTRE PEYTAVIN
406124GBOUBOU          MALL          1032905510110030355001091932CENTRE PEYTAVIN
406523DOUSMANE         GUEYE         0000053719/G0029347201091932CENTRE PEYTAVIN
406917EIBRAHIMA        NDAO          0371055001010030922001091932CENTRE PEYTAVIN
407139DYOUSSOUPHA      SIDIBE        0000055260/G0030223301091932CENTRE PEYTAVIN
410293GJEAN PIERRE     NDIAYE        0000051034/N0025681201091932CENTRE PEYTAVIN
412108DDOUDOU GUEYE    SECK          0000054946R 0016565501091932CENTRE PEYTAVIN
412513BAMADOU          SATHIE        0000050714/R0021727001091932CENTRE PEYTAVIN
413500APAPA MALICK     SANE          0000055590/R0026471401091932CENTRE PEYTAVIN
413710ZOUMAR           SARR          0000060732/E0024532701091932CENTRE PEYTAVIN
413885AOUMAR           DIAO          0374935001010013863101091932CENTRE PEYTAVIN
414061LMAGUETTE        NIANG         1024063010110029115801091932CENTRE PEYTAVIN
414784DMAMADOU SALIF   BADJI         0000059481/V0014062701091932CENTRE PEYTAVIN
430016DMBAYE           TINE          0368922001010025245901091932CENTRE PEYTAVIN
430019GBADARA          NDIAYE        0000059653/G0030613401091932CENTRE PEYTAVIN
430104DMAME OUSMANE NIASONKO         1034607410110023265801091932CENTRE PEYTAVIN
431329HIBRAHIMA        NIAKH         0365756001010017468101091932CENTRE PEYTAVIN
431330BOUSMANE DEMBA   DIA           0372642001010024815001091932CENTRE PEYTAVIN
431331AMAMADOU         KONATE        0367305001010022917001091932CENTRE PEYTAVIN
431340CBAYE SENY       NDOYE         0365791001010025700701091932CENTRE PEYTAVIN
433658EYANKHOUBA       DIEDHIOU      1036104910110008822301091932CENTRE PEYTAVIN
434151HBERTRAND JUNIOR SAMBOU        1024391010210009849901091932CENTRE PEYTAVIN
434219EMBAYE SENE      NDIAYE        1036353810110010423101091932CENTRE PEYTAVIN
434220EOUSMANE WALY SANDIOUF         1043790310110015961101091932CENTRE PEYTAVIN
434224ADOUDOU          DIEDHIOU      1035635710110015088801091932CENTRE PEYTAVIN
434230FIBRAHIMA        FALL          1041646310110015261101091932CENTRE PEYTAVIN
435027ASOULEYMANE      MANE          1041422410110026558901091932CENTRE PEYTAVIN
435037BIBRAHIMA        SOLY          1035724310110014119101091932CENTRE PEYTAVIN
435377CCHERIF SIDY LAMISAGNA         1041535910110020604101091932CENTRE PEYTAVIN
435745BCOUMBA NDOFFENE SENE          1041719910110018595801091932CENTRE PEYTAVIN
436498DOUSMANE C       KANDE         1024582910110021688501091932CENTRE PEYTAVIN
436499CJULES P         MENDY         1041415510110014395801091932CENTRE PEYTAVIN
436900BPASCAL          DIATTA        0104111510110010936501091932CENTRE PEYTAVIN
436904FKHADIM          FALL          1024869010110012773501091932CENTRE PEYTAVIN
437225CDANIEL MARX     DIATTA        1040996710110009849901091932CENTRE PEYTAVIN
437245EALADJI FALLOU MBDIAGNE        1040991810110015261101091932CENTRE PEYTAVIN
437449AAMADOU          DIOUF         1045247810110013262701091932CENTRE PEYTAVIN
437451HABDOULAYE       NGOM          1034479410110030298001091932CENTRE PEYTAVIN
437625AOUMAR           GASSAMA       1041748510110018618701091932CENTRE PEYTAVIN
437626BPIERRE ASSIGUINATENDENG       1034786710110018112001091932CENTRE PEYTAVIN
437699BVIEUX MALANG    DIEDHIOU      1034480010110014951101091932CENTRE PEYTAVIN
438017CPAPE            SARR          1040465710110029077401091932CENTRE PEYTAVIN
439490OALASSANE        DIALLO        1036386310110012161001091932CENTRE PEYTAVIN
439494KODILON NABANEKO DIONOU        1040573110110015267401091932CENTRE PEYTAVIN
440582AIBRAHIMA        FAYE          1045886710110007656901091932CENTRE PEYTAVIN
440587DAMADOU TIDIANE  SONKO         1037226310110029077401091932CENTRE PEYTAVIN
440592BABIBOU          DIA           1042795110110010585301091932CENTRE PEYTAVIN
440594ZBABACAR         BA            1042701910110010842401091932CENTRE PEYTAVIN
440595APAPA ABDOU      FALL          1041824610110010849901091932CENTRE PEYTAVIN
441625HISMAILA         DIOP          1042479110110008381501091932CENTRE PEYTAVIN
441626IIBRAHIMA SINTO  BASSENE       1042481310110010099901091932CENTRE PEYTAVIN
441628KALASSANE        DIATTA        1042478010110010575301091932CENTRE PEYTAVIN
443138CDJEMBENG        NDIAYE        1046518010110010849901091932CENTRE PEYTAVIN
443139DMAISSA          SENE          1046645410110010849901091932CENTRE PEYTAVIN
443295EPAPE MAMADOU    FAYE          1046925010110010592801091932CENTRE PEYTAVIN
443297CLAMINE          DIEDHIOU      1046486010110012852001091932CENTRE PEYTAVIN
443299AMAMADOU         BALDE         1046866810110010592801091932CENTRE PEYTAVIN
445100DWALY            NDOUR         1044253910110011022201091932CENTRE PEYTAVIN
445103ASALIF           DIEYE         1044268110110010592801091932CENTRE PEYTAVIN
445104ZSIDATE          GOUDIABY      1042794110110010592801091932CENTRE PEYTAVIN
445279AMAMOUTH         DIOP          1042074710110010849901091932CENTRE PEYTAVIN
445316CMBAR            FAYE          1042706810110010592801091932CENTRE PEYTAVIN
445320DALIOU           DIOUF         1046484510110010592801091932CENTRE PEYTAVIN
445321CYAYA            SANE          1046820610110010592801091932CENTRE PEYTAVIN
445762BABDEL KADER     DIEME         1045826010110010592801091932CENTRE PEYTAVIN
447424AAMAD            FAYE          1046827710110010592801091932CENTRE PEYTAVIN
403386FMAMADOU         DIOP          0000057620/X0031535901091932CENTRE PEYTAVIN
430147CEL HADJI DAOUDA GAYE          0000064231/H0027106901091932CENTRE PEYTAVIN
432276BJEAN MARIE      MALACK        0379352030010011083601091932CENTRE PEYTAVIN
436852BJACQUE AIME     MANGA         1041832310110011512701091932CENTRE PEYTAVIN
439167HIBRAHMA         SENE          1042791510110010592801091932CENTRE PEYTAVIN
440666FALEXANDRE BOUNA BIANQUINCH    1043372110110008410501091932CENTRE PEYTAVIN
440670AJEAN BAPTISTE   MENDY         1044379210110008868601091932CENTRE PEYTAVIN
443234ZDAOUDA          POUYE         1045063110110010592801091932CENTRE PEYTAVIN
443255AABDOULAYE       THIAM         1044605010110011356001091932CENTRE PEYTAVIN
443256ZALSANE          DIALLO        1044603310110012032001091932CENTRE PEYTAVIN
445023DBERNARD         GNING         1045061910110009512201091932CENTRE PEYTAVIN
445135BBACARY          DIEDHIOU      1047147410110010592801091932CENTRE PEYTAVIN
445731ZINSA            MANE          1046550110110009401901091932CENTRE PEYTAVIN
445733BNIOKHOR         SARR          1041738010210010592801091932CENTRE PEYTAVIN
445735DFAKEBA          DIEME         1041738610210010592801091932CENTRE PEYTAVIN
445737FDAOUDA          SECK          1041739110210009501901091932CENTRE PEYTAVIN
407099KIBOU            BADJI         00000019001V0411000001091932CENTRE PEYTAVIN
437686DMAME TOUTY      SARR          1035968210110009839901091932CENTRE PEYTAVIN
411300ADAOUR           OUANDA        0000055561/J0036146001091932CENTRE PEYTAVIN
411970BBASSIROU        DEME          00000042010E0411000001091932CENTRE PEYTAVIN
412707IASSANE          FAYE          0000054317/G0023612101091932CENTRE PEYTAVIN
412957FJEAN CLAUDE     BOUCAL        0375211001010024387401091932CENTRE PEYTAVIN
413460HMBAYE           THIAW         1034229210110026936501091932CENTRE PEYTAVIN
414920ZBATHIE          MBAYE         0000063033/F0022478901091932CENTRE PEYTAVIN
433226BABDOULAYE       DIOUF         1034539510110015161501091932CENTRE PEYTAVIN
433987DGABRIEL         SARR          1036076210110016088801091932CENTRE PEYTAVIN
434604EDAOUDA          NDIAYE        1041232710110014240401091932CENTRE PEYTAVIN
435290MMAMADOU LAMINE  DIASSY        1041034710110017607001091932CENTRE PEYTAVIN
435291LFODE SALIFOU    SAKHO         1041068910110015490401091932CENTRE PEYTAVIN
435828HSEKOU           CAMARA        1035852410110015088801091932CENTRE PEYTAVIN
435830AYOUSSOUPH       COLY          1036374810110015338801091932CENTRE PEYTAVIN
435832AYANKHOBA        GASSAMA       1037813410110010070401091932CENTRE PEYTAVIN
435838GYANCOUBA        BADJI         1035860510110014445801091932CENTRE PEYTAVIN
435840BBABACAR         MBOUP         1035994210110014147401091932CENTRE PEYTAVIN
435843AAMADOU TORO     BALDE         1036008110110014365801091932CENTRE PEYTAVIN
435844BPAPE BOURE      SENE          1035946510110016088801091932CENTRE PEYTAVIN
436371JMOUSTAPHA       COLY          1033996110110013036901091932CENTRE PEYTAVIN
436465DMALANG          GOUDIABY      1035641210110016038801091932CENTRE PEYTAVIN
436468ASALIOU          SEYDI         1036272310110016088801091932CENTRE PEYTAVIN
436473GANOUAR          DIEDHIOU      1036274810110010101301091932CENTRE PEYTAVIN
436937FOUSMANE         SADIO         1036382910110010283601091932CENTRE PEYTAVIN
436961CCHRISTOPHE SAMBOBOP           1036371510110017608701091932CENTRE PEYTAVIN
437122GSAMBA           SOW           1036760310110012027401091932CENTRE PEYTAVIN
437276GSALIF MAMADOU   SALL          1024575710110014736501091932CENTRE PEYTAVIN
437277FCHEIKH OMAR     DIOP          1024215610110015211101091932CENTRE PEYTAVIN
437588CIBRAHIMA        MAR           1041397010110015827401091932CENTRE PEYTAVIN
439139CSOMBEL          TINE          1041750510110011026101091932CENTRE PEYTAVIN
440448HSITOR           FAYE          1041841410110010899901091932CENTRE PEYTAVIN
440450APAPE MASSAMBA   LO            1041766310110014202001091932CENTRE PEYTAVIN
441330AMADIOP          SIDIBE        1041671310110009842401091932CENTRE PEYTAVIN
441331ZSIDY            MANGA         1041746110610010782401091932CENTRE PEYTAVIN
441663BTHIONE          DIENG         1042124510110012032001091932CENTRE PEYTAVIN
441666EMAMADOU         FAYE          1043290910110010849901091932CENTRE PEYTAVIN
441667FIBOU            NDIAYE        1042155210110012282001091932CENTRE PEYTAVIN
441677EABDOULAYE       GNING         1042154610110011762001091932CENTRE PEYTAVIN
441969KMAMADOU         BAKHOUM       1043412110110011033601091932CENTRE PEYTAVIN
442902ILAMINE          DIEME         1042707010110009849901091932CENTRE PEYTAVIN
443214BABDOULAYE       CAMARA        1043197710110010592801091932CENTRE PEYTAVIN
443215CKEMO            DABO          1043719110110009501901091932CENTRE PEYTAVIN
445179BYANCOUBA        SANE          1045613410110009592801091932CENTRE PEYTAVIN
405267FBADARA          BODIAN        0000051481/Z0036029301091932CENTRE PEYTAVIN
407732EBIRANE          BA            0000052422/X0024608101091932CENTRE PEYTAVIN
432465ZEL HADJI T BABA DIOUF         1034538310110012677001091932CENTRE PEYTAVIN
433137ANDEYE DABA      DIOP          1033619810110022898401091932CENTRE PEYTAVIN
433466ZSALIOU          FAYE          1033968710110024821101091932CENTRE PEYTAVIN
433666BAWA             KANE          1034529310210026032201091932CENTRE PEYTAVIN
437343FALIOUNE BADARA  SARR          1037618910210016091101091932CENTRE PEYTAVIN
438021JISMAILA         SAGNA         1040647710610009751501091932CENTRE PEYTAVIN
438022IIBRAHIMA        LEYE          1040312310610013032001091932CENTRE PEYTAVIN
439599EYADICONE        DIOUF         1040605710610008680801091932CENTRE PEYTAVIN
404703BBOUBACAR        DIALLO        0000054634/B0033412201091932CENTRE PEYTAVIN
059978FIBRAHIMA        GAYE          00000030445J0600000001091932CENTRE PEYTAVIN
404293LASSANE          SECK          17854Y      0060081601091932CENTRE PEYTAVIN
404830CEDOUARD P ANTOINNDIAYE        0000055269/S0036040701091932CENTRE PEYTAVIN
406234GPAUL            DIAME         0373171001010030659601091932CENTRE PEYTAVIN
407065LOUMAR           SARR          0369296001010039846301091932CENTRE PEYTAVIN
403628EAMADOU MACTAR   MBOUP         0000022354P 0309000001091932CENTRE PEYTAVIN
405895EAMADOU BARRO    NGOM          0000056524/F0029086201091932CENTRE PEYTAVIN
405896DABDOULAYE       DIENG         0000051440/E0037146001091932CENTRE PEYTAVIN
406921BABABACAR        SECK          0000050487/U0030859501091932CENTRE PEYTAVIN
409312IELHADJI D0      HANNE         0000060583/T0031900601091932CENTRE PEYTAVIN
410416FMASSEYE         NGOM          0000056948/S0039427201091932CENTRE PEYTAVIN
411955EALIOUNE BADARA  DIALLO        0000052492/Y0032608201091932CENTRE PEYTAVIN
412888CPAPA IDRISSA    DIAME         0000056944/M0032642901091932CENTRE PEYTAVIN
413047CIBRAHIMA        DIOP          1034233510110023632701091932CENTRE PEYTAVIN
414035ESOULEYE         DIALLO        1036863110110023778301091932CENTRE PEYTAVIN
431069AMAMADOU MAHMOUDODIA           1036836710110021861601091932CENTRE PEYTAVIN
431095FCLEMENT         TENDENG       1037526010110016286001091932CENTRE PEYTAVIN
435123DALIOUNE BARRY   DIONE         1036375910110020844901091932CENTRE PEYTAVIN
435128ANDARAW          NIANG         1046652310110016052501091932CENTRE PEYTAVIN
436090PBOUBACAR        KEITA         1042788710110014247901091932CENTRE PEYTAVIN
436550GABDOULAYE       DIOUF         1043456810110021638501091932CENTRE PEYTAVIN
437404ZIBRAHIMA        LY            1043395210110010842401091932CENTRE PEYTAVIN
437409EPAPE SEYNI      MBOYE         1040634810110010026101091932CENTRE PEYTAVIN
437410EISSA            DIENE         1040320210110018068701091932CENTRE PEYTAVIN
437548ADJILY           MBAYE         1040634210110010592801091932CENTRE PEYTAVIN
437549BAHMA            NDIAYE        1043626710110010592801091932CENTRE PEYTAVIN
439292OMALICK          NIANG         1042043010110010592801091932CENTRE PEYTAVIN
439294METIENNE VINCENT BASSE         1041810610110009849901091932CENTRE PEYTAVIN
440311CMAZOUZ          DIAKHATE      1042392910110015777401091932CENTRE PEYTAVIN
441285BABDOU           FAYE          1041658510110009899901091932CENTRE PEYTAVIN
441363ASEMOU           FAYE          1041672710110010849901091932CENTRE PEYTAVIN
441919PSEYDOU          GOUDIABY      1042154110110010592801091932CENTRE PEYTAVIN
441920FANTOINE         MANGA         1042345010110010849901091932CENTRE PEYTAVIN
441924JSOULEYE         SENE          1046765910120009842801091932CENTRE PEYTAVIN
441928NEL HADJI MALICK DIAITE        1042302510110009999901091932CENTRE PEYTAVIN
443011CADAMA           KONTE         1048960710110010592801091932CENTRE PEYTAVIN
444904IDAOUDA          HAO           1044001210110010899901091932CENTRE PEYTAVIN
444906KMAMADOU LAMINE  DIATTA        1043965610110010849901091932CENTRE PEYTAVIN
444907LMBAYE           NDIAYE        1044003210110010592801091932CENTRE PEYTAVIN
445331DJEAN NOEL       KABOU         1047777610110010592801091932CENTRE PEYTAVIN
445625DIDRISSA         SENE          1047777710410010592801091932CENTRE PEYTAVIN
445627FLAMINE          SAMBOU        1046261710110010592801091932CENTRE PEYTAVIN
445927ISEYDOU          SANE          1046072010110010592801091932CENTRE PEYTAVIN
410475APAPA THIANAR    FAYE          0000064201/A0031907401091932CENTRE PEYTAVIN
410744DMAMADOU ALASSAN SY            0000053532/D0029622201091932CENTRE PEYTAVIN
437137CABDOULAYE       BODIAN        1044613610110010849901091932CENTRE PEYTAVIN
404933AJUSTIN BIRAM    NDIONE        46261/A     0036735201091932CENTRE PEYTAVIN
405635ATAMSIR          DIOP          43587U      0037510801091932CENTRE PEYTAVIN
408428BSEYDOU          DIOGOUL       1023698310110036507401091932CENTRE PEYTAVIN
414993DEL HADJI B      GUEYE         0062182001010020498101091932CENTRE PEYTAVIN
430008GBABACAR         GUEYE         1034136010110028171301091932CENTRE PEYTAVIN
432525ETAMSIR          NDOYE         1043473310110016011101091932CENTRE PEYTAVIN
434101CWALY            DIOP          1035295910210014261101091932CENTRE PEYTAVIN
434768DJEAN MATHURIN   COLY          1042997910110015850801091932CENTRE PEYTAVIN
436455CIBRAHIMA        SECK          1038255810110016615701091932CENTRE PEYTAVIN
438027DSADIO           BA            1041450310110010782401091932CENTRE PEYTAVIN
440417JBECAYE          DIEME         1042971510110010849901091932CENTRE PEYTAVIN
440424FAMADOU BELALY   SANE          1041072010110016293901091932CENTRE PEYTAVIN
440430AALIOUNE         DIOUF         1042970810110007523601091932CENTRE PEYTAVIN
440432CSOULEYMANE      NDIAYE        1036791210110010842401091932CENTRE PEYTAVIN
441411CSOULEYMANE      TOURE         1037810910110009892401091932CENTRE PEYTAVIN
441412DDJIBY           NDIAYE        1043368910610012356001091932CENTRE PEYTAVIN
441423DAMADOU          MBALLO        1041827610610009986601091932CENTRE PEYTAVIN
441424EMOUSTAPHA       DIEYE         1042291610110015497701091932CENTRE PEYTAVIN
441426GMOUSSA          FAM           1042280010110009849901091932CENTRE PEYTAVIN
441431AIBRAHIMA SORY   DIALLO        1036488110110010022201091932CENTRE PEYTAVIN
441508LMAMADOU LAMARANADIALLO        1036468610110007407301091932CENTRE PEYTAVIN
441608MMANDOU          DIATTA        1042950810110010092801091932CENTRE PEYTAVIN
443070JSERIGNE MODOU   DIOUF         1046662410110010592801091932CENTRE PEYTAVIN
443257AJEAN MARIE      SENGHOR       1043958310610010092801091932CENTRE PEYTAVIN
443259CMODOU FATMA     DIOUF         1038673910110009592801091932CENTRE PEYTAVIN
445014BLAMINE          SENGHOR       1043106010110011022201091932CENTRE PEYTAVIN
445017AABDOULAYE       NDOUR         1041683310110010592801091932CENTRE PEYTAVIN
445018BSALIOU          CISS          1042712010110010592801091932CENTRE PEYTAVIN
445057CANTOINE         DIANDY        1044242810610010592801091932CENTRE PEYTAVIN
445299CDJIBY           DEME          1042713610110011022201091932CENTRE PEYTAVIN
447790IYOUSSOUPHA      FAYE          1043386110110010592801091932CENTRE PEYTAVIN
430818NNDENE           DIALLO        0000057764/D0014209301091932CENTRE PEYTAVIN
410122BOUMAR           SAMBOU        0000007067/Y0162000001091932CENTRE PEYTAVIN
434803FALPHOUSSEYNI    BADJI         1036362610110016638501091932CENTRE PEYTAVIN
434805HMOMINY          NIANE         1036358410110021069101091932CENTRE PEYTAVIN
436770GBIRAME          GNING         1036358710110018445401091932CENTRE PEYTAVIN
436771FHARONA          FAYE          1036837010110012488501091932CENTRE PEYTAVIN
436772EBABACAR         MBODJI        1036362710110016299401091932CENTRE PEYTAVIN
437768APAPA NIOKHOR    DIOUF         1040541610110009369301091932CENTRE PEYTAVIN
408855DMOISE           NDONG         1034214310110024885101091932CENTRE PEYTAVIN
409761KYOUNOUSSA       DIALLO        1035750210110029341201091932CENTRE PEYTAVIN
411932DCHEIKHOU AHMADOUDIA           0000060250/F0026389801091932CENTRE PEYTAVIN
412286EYAYA            DIALLO        1041455310110027810701091932CENTRE PEYTAVIN
413062JMAMADOU ALIOU   DIALLO        0370671001010021180401091932CENTRE PEYTAVIN
413230GANSOUMANA       DIATTA        0000052406E 0037996201091932CENTRE PEYTAVIN
414103CMOUSTAPH        COLY          1040314010110006445801091932CENTRE PEYTAVIN
414439CMAMADOU         SAMB          0000066053/N0030061801091932CENTRE PEYTAVIN
414546ZROGER           DIEME         1036361310110018559701091932CENTRE PEYTAVIN
414744ZFAMARA          DIEDHIOU      0062301001010021371301091932CENTRE PEYTAVIN
414754AJOSEPH          THIAM         0000057413/X0023253901091932CENTRE PEYTAVIN
414757BBUVE            DIEDHIOU      0000057421/F0025373301091932CENTRE PEYTAVIN
430849LMARCEL          DIATTA        1033657210110021095801091932CENTRE PEYTAVIN
431478CLAMINE          MANGA         1038385410110015490401091932CENTRE PEYTAVIN
433112BSYLVESTRE       MANDIKA       1035541910110014400801091932CENTRE PEYTAVIN
433115ACHRISTIAN       DIEDHIOU      1034918610110015337401091932CENTRE PEYTAVIN
433265CPARE            NDIAYE        1034499310110016041101091932CENTRE PEYTAVIN
433266BMADIA DIATTA    NDAO          1036014610110021718501091932CENTRE PEYTAVIN
434020GOUMAR           DIAW          1037895610110013618701091932CENTRE PEYTAVIN
434025BIBRAHIMA HAMIDOUDIALLO        1035742710110017529301091932CENTRE PEYTAVIN
434292JCHEIKH YANCOUBA SANE          1035613510110009211801091932CENTRE PEYTAVIN
434302ZMAMADOU         DIAGNE        1035978410110027211501091932CENTRE PEYTAVIN
434304BALIOU           BALDE         1038735710110014226301091932CENTRE PEYTAVIN
434305CIBRAHIMA        SADIO         1038776510120012800301091932CENTRE PEYTAVIN
434306DHEROBA          KEITA         1040064110110016439101091932CENTRE PEYTAVIN
434313ZMAMADOU LAMINE  DANFA         1035975310110015860801091932CENTRE PEYTAVIN
434524BMINDOR          SARR          1035751410110011449401091932CENTRE PEYTAVIN
434530CSOUNCAR         FATY          1035994510110016286301091932CENTRE PEYTAVIN
434531BCLEMENT DOMINIQUMENDY         1036299310110017170701091932CENTRE PEYTAVIN
434532ALOUIS BERNARD   SAMBOU        1035597410110011296501091932CENTRE PEYTAVIN
434536CBRICE           MALOU         1038681110110010761601091932CENTRE PEYTAVIN
435081MBACARY          DIOP          1036370410110026140801091932CENTRE PEYTAVIN
435090OFRANCOIS        NDONG         1040567010110016088801091932CENTRE PEYTAVIN
435100EBABACAR MBAYE   SECK          1034905810110012198201091932CENTRE PEYTAVIN
435101DOMAR            SAGNA         1038207210110016475901091932CENTRE PEYTAVIN
435105ZPAPA AMADOU     NDIAYE        1042390310110017607001091932CENTRE PEYTAVIN
435106AYERO            MBALLO        1036648710110021324001091932CENTRE PEYTAVIN
435114BMAMADOU         SY            1037133610110022358601091932CENTRE PEYTAVIN
435574DMAMADOU LAMINE  COLY          1037625110110021688501091932CENTRE PEYTAVIN
435575CBOURAMA         MANE          1036355010110016398001091932CENTRE PEYTAVIN
435579ABALLA MOUSSA    MANE          1038556610210014947901091932CENTRE PEYTAVIN
435580IDIERE           SAGNA         1035867510110012584601091932CENTRE PEYTAVIN
435582GALIOU BOCAR     DIATTA        1038670910110016011101091932CENTRE PEYTAVIN
435584EEMMANUEL        KANTOUSSAN    1038565110110020943801091932CENTRE PEYTAVIN
435585DANSOU           DIEME         1036050810110014937001091932CENTRE PEYTAVIN
436099GBAUDOIN         SAGNA         1035859010110015036901091932CENTRE PEYTAVIN
436104BABDOULAYE       BALDE         1036015910110011527101091932CENTRE PEYTAVIN
436105AALIOU           DRAME         1035853010110011033601091932CENTRE PEYTAVIN
436107AALPHA           DIATTA        1037900710110018788701091932CENTRE PEYTAVIN
436113DMOUSTAPHA       GOUDIABY      1037978010110008972701091932CENTRE PEYTAVIN
436114CLAMINE          BODIAN        1037567510210011530701091932CENTRE PEYTAVIN
436116AVINCENT         SAGNA         1038770610120012579301091932CENTRE PEYTAVIN
436123EFILY            BIAYE         1036482610110020938501091932CENTRE PEYTAVIN
436879CEFREME          DIATTA        1038681410110016891101091932CENTRE PEYTAVIN
436928HNGAGNE DEMBA    DJIGAL        1010978210110032028701091932CENTRE PEYTAVIN
437248BELHADJI MOMAR   DIOP          1037830510110017968701091932CENTRE PEYTAVIN
437249AFRANCOIS CHARLESGOMIS         1038636310410017131101091932CENTRE PEYTAVIN
437494IMOUSTAPHA       NDOYE         1041236510110008859001091932CENTRE PEYTAVIN
437495HBOUBACAR FALL   BODIAN        1040665510110009849901091932CENTRE PEYTAVIN
437497FMOUSSA          DIAW          1038786010110013922001091932CENTRE PEYTAVIN
437498EMOUHAMED        FAYE          1037897410110010849901091932CENTRE PEYTAVIN
437501BPAPE MBAYE      GUEYE         1037835910110020527701091932CENTRE PEYTAVIN
437661GMATAR           DIATTA        1040257310120010033601091932CENTRE PEYTAVIN
437666BJEAN MARUIS     DEMBA         1038374010110014520301091932CENTRE PEYTAVIN
437671HOUMAR           DIOP          1038609010110010033601091932CENTRE PEYTAVIN
438067HSANDJIRI        DIOP          1040312510410015317401091932CENTRE PEYTAVIN
438071OABDOU           DIOUF         4100241011450015077401091932CENTRE PEYTAVIN
438073MMANIANGA        NIANG         1040244910410008944701091932CENTRE PEYTAVIN
438077IMOUSSA          DIATTA        1040558510110009849901091932CENTRE PEYTAVIN
438078HGABRIEL NICOLAS FAYE          1041645310110009342401091932CENTRE PEYTAVIN
438080QSAMBA           BALDE         1040470710110010966101091932CENTRE PEYTAVIN
439380OOUMAR           DIOUF         1041226710110015527701091932CENTRE PEYTAVIN
439382MMOUSTAPHA       BADJI         1041378110110010891501091932CENTRE PEYTAVIN
439384KSOULEYMANE      MANE          1040487910110010842401091932CENTRE PEYTAVIN
439385JALIOU           THIANG        1041234410110013032001091932CENTRE PEYTAVIN
439392NOUSMANE         DIATTA        0410060410110010568501091932CENTRE PEYTAVIN
440620DMARCEL YANGANE  MBAYE         1042951810110011356001091932CENTRE PEYTAVIN
440623GALY             FAYE          1042024610110030442001091932CENTRE PEYTAVIN
440629MLANSANA         SANE          1041756210110008077701091932CENTRE PEYTAVIN
440631DDALY            NDIAYE        1043310610110010592801091932CENTRE PEYTAVIN
440633FMOUSSA          SANE          1042407110110010899901091932CENTRE PEYTAVIN
440634GBABACAR         MBATHIE       1044114910110012356001091932CENTRE PEYTAVIN
440638KIBRAHIMA        GAYE          1041744110110030492001091932CENTRE PEYTAVIN
441565CIBRAHIMA        DIALLO        1042396410110010319301091932CENTRE PEYTAVIN
441567EIDRISSA         DIATTA        1042280510110011523601091932CENTRE PEYTAVIN
441571BMALICK          GNING         1042660910110013032001091932CENTRE PEYTAVIN
441574ASOULEYMANE      SIDIBE        1042935810110012136001091932CENTRE PEYTAVIN
443020EIBRAHIMA        FAYE          1043010410110014922401091932CENTRE PEYTAVIN
443022CARONA           TRAORE        1043367210110013529501091932CENTRE PEYTAVIN
443023BJEAN FRANCOIS   NDIAYE        1043638810110009592801091932CENTRE PEYTAVIN
443211AHENRI           DIONE         1043316110110010592801091932CENTRE PEYTAVIN
445128BALY             SY            1045294310110010592801091932CENTRE PEYTAVIN
431964EOUSSEYNOU       SADIO         1038359010110015398001091932CENTRE PEYTAVIN
412404CJULES           DIATTA        0000060184/J0031338401091932CENTRE PEYTAVIN
412789CBABA            DIOP          0000056540/Y0097064301091932CENTRE PEYTAVIN
430119HABDOULAYE       SANE          0000057287/K0035000801091932CENTRE PEYTAVIN
436864APHILIPPE        SENGHOR       1035728410110018652401091932CENTRE PEYTAVIN
437391MAMIDOU          MANGA         1041449810110016629801091932CENTRE PEYTAVIN
439393MIBRAHIMA        SECK          1040637510110011722701091932CENTRE PEYTAVIN
436548BIBRAHIMA        DIEDHIOU      1037873910110019756901091932CENTRE PEYTAVIN
437973COMAR            MANE          1038746510110020000201091932CENTRE PEYTAVIN
437974BIBRAHIMA        DIOP          1038747210110018413401091932CENTRE PEYTAVIN
442831DAMADOU          SARR          1043080710110020067701091932CENTRE PEYTAVIN
445052HBACARY          DIATTA        1044725910110009592801091932CENTRE PEYTAVIN
501435ZPIERRE DAMIEN   BADIANE       0368517001010050256601091933CENTRE PEYTAVIN
503489CBABACAR         NDIAYE        17787A      0022743601091933CENTRE PEYTAVIN
511038ZOUMAR           DIOP          53124K      0042796701091933CENTRE PEYTAVIN
511052HAMADOU          NDOUR         1044394010110028692401091933CENTRE PEYTAVIN
511070LMAMADOU         DIATTA        13172J      0032816901091933CENTRE PEYTAVIN
511181KCELESTINE       MANEL         60154       0036910701091933CENTRE PEYTAVIN
515610DMAMADOU         WADE          0053751S    0038569801091933CENTRE PEYTAVIN
515639CSOULEYMANE      DIENE         1033750110110028315801091933CENTRE PEYTAVIN
517197LIBRAHIMA BIRAHIMNIANG         1044877210110028543801091933CENTRE PEYTAVIN
517222IDAMIEN          NDIAYE        1010856210110035257501091933CENTRE PEYTAVIN
517241LABDOULAYE       DANFAKHA      53935/S     0037983201091933CENTRE PEYTAVIN
517259ELEONARD         SOROPOGUI     00000052614F0021302301091933CENTRE PEYTAVIN
519391RELHADJ BACK     NDOUR         0369204001010036407001091933CENTRE PEYTAVIN
602978BELHADJI OUSSEYNOFALL          0048654B    0032317101091933CENTRE PEYTAVIN
605648ADAOUDA          DIALLO        49519/S     0013782401091933CENTRE PEYTAVIN
608465KCHEIKH          SAMB          0369100001010033787601091933CENTRE PEYTAVIN
608905ZFATOU TALL      AW            59165B      0015174301091933CENTRE PEYTAVIN
610276DEL HADJI        FAYE          0061759001010025056301091933CENTRE PEYTAVIN
610344BDJIBRIL MOUSSA  CAMARA        54014/C     0031140001091933CENTRE PEYTAVIN
614319BNDIAGA          KA            1034043510110050382801091933CENTRE PEYTAVIN
614443FPAPA OUSMANE    SECK          60188N      0027961801091933CENTRE PEYTAVIN
614494JARDO            NDIAYE        0371034001010029319201091933CENTRE PEYTAVIN
614643DSOULEYMANE      FAYE          54224/F     0037268201091933CENTRE PEYTAVIN
614659AAMACODOU        NDIAYE        064931U     0037445201091933CENTRE PEYTAVIN
615485IANTOINETTE      CABO          55317/U     0021189901091933CENTRE PEYTAVIN
616526BMICHEL DJIDIACK BAKHOUM       1043220910110031756701091933CENTRE PEYTAVIN
616533FBACARY          BODIAN        1035558510110024993801091933CENTRE PEYTAVIN
616548BCHEIKH SIDATY   COLY          1033642110110022092401091933CENTRE PEYTAVIN
616563IPAPA NDONGO     DIAGNE        0058022J    0036590401091933CENTRE PEYTAVIN
616601DHABIB           DIONE         0369258001010026886201091933CENTRE PEYTAVIN
616626AWALY            DIOP          1034892610110025631201091933CENTRE PEYTAVIN
616780LIBRAHIMA        NDOYE         0369212001010034977701091933CENTRE PEYTAVIN
616782JBOUBACAR        NGOM          0368959001010032850901091933CENTRE PEYTAVIN
618451MSERIGNE SALIOU  SOW           0368374001010022602701091933CENTRE PEYTAVIN
620815HOUSMANE         BA            0365686001010014001001091933CENTRE PEYTAVIN
623004CSANOU           DIOUF         60223B      0043371901091933CENTRE PEYTAVIN
623137BABDOULAYE       NIANG         0058004/P   0029839401091933CENTRE PEYTAVIN
623162JISSA            DANKARATOU    59553       0029099701091933CENTRE PEYTAVIN
623238ZNDIAGA          DIOUF         00000058002M0027547401091933CENTRE PEYTAVIN
623255EOUMAR GASPARD   NIASSE        59426K      0025459801091933CENTRE PEYTAVIN
623263HALASSANE        NIANG         60195W      0023410601091933CENTRE PEYTAVIN
623310EABDOU           GUEYE         00000055381N0025434601091933CENTRE PEYTAVIN
623327AALADJI ALY      NIASS         0369397001010034815101091933CENTRE PEYTAVIN
623380LMBAYE           KA            058019F     0028471701091933CENTRE PEYTAVIN
623428CPASCALINE       DIONE         0058015/B   0030234401091933CENTRE PEYTAVIN
623444CDAOUR           NIANG         0370179001010026728801091933CENTRE PEYTAVIN
623447ZSOKHNA          SARR          00058014A   0027571601091933CENTRE PEYTAVIN
623448ASIRA SARR       SENE          00058016C   0018979601091933CENTRE PEYTAVIN
671943HEMILE GUINIANE  LOUM          1037815310110025065901091933CENTRE PEYTAVIN
672068AASTOU           SYLLA         1048962610110027249301091933CENTRE PEYTAVIN
672152CSECOUBA         BADJI         1037828110110028104001091933CENTRE PEYTAVIN
672167AMAMADOU LAMINE  BASSE         0033487210110031736901091933CENTRE PEYTAVIN
672738KMOUSTAPHA       DIOP          1035735610110026699901091933CENTRE PEYTAVIN
681875GMAMADOU OUSMANE DIALLO        1042014610110030242601091933CENTRE PEYTAVIN
682094EMASSAER         CISSE         1032814010110025610801091933CENTRE PEYTAVIN
682751CSOKHNA          NDOUR         1042012810110017596801091933CENTRE PEYTAVIN
693157CMAMADOU         WANE          1043357410110021920901091933CENTRE PEYTAVIN
693158DMBAYE           YOUM          1024453210110026569101091933CENTRE PEYTAVIN
696195FADJA COUMBA     NDIAYE        1038695610110051695701091933CENTRE PEYTAVIN
706614DCHEIKH OMAR     DIALLO        1045031010110024419301091933CENTRE PEYTAVIN
706627BABDOULAYE       DIEDHIOU      1045025110110024853401091933CENTRE PEYTAVIN
706632HSECKOU          DIENE         1045025310110023946201091933CENTRE PEYTAVIN
706729AIBRAHIMA        NDIAYE        1045049310110022720801091933CENTRE PEYTAVIN
706759BMATAR           NIANG         1045051910110023632801091933CENTRE PEYTAVIN
707512HABDOU           FAYE          1045033110110020377401091933CENTRE PEYTAVIN
707958BMASSAR          NDIAYE        1044387510110020501201091933CENTRE PEYTAVIN
707977EPAPA ABABACAR   NDIAYE        1045267410110022384901091933CENTRE PEYTAVIN
508587ISOUNKADY        BASSENE       00000034670B0039491201091933CENTRE PEYTAVIN
516770JABDOURAHMANE    GUEYE         50724/B     0026342201091933CENTRE PEYTAVIN
616642GMBACKE          DIOUF         1032873910110035198701091933CENTRE PEYTAVIN
517220KABDOULAYE       DIOP          053225V     0033801201091933CENTRE PEYTAVIN
616728BALIOUNE BADARA  NDAO          1040085710310030754401091933CENTRE PEYTAVIN
509725DSEYNABOU        DIENE         12467T      0031758201091933CENTRE PEYTAVIN
616832DMINDOR          SARR          55515J      0029316701091933CENTRE PEYTAVIN
509643IMOUSSA          TRAORE        9941X       0028298801091933CENTRE PEYTAVIN
510992BIBRAHIMA        MBODJI        6261X       0026844401091933CENTRE PEYTAVIN
607177LTABASKI         SARR          55542N      0027482401091933CENTRE PEYTAVIN
502625BNDEO            NGOM          54431/F     0030950401091933CENTRE PEYTAVIN
513590KABIBOU          BA            23248L      0037569501091933CENTRE PEYTAVIN
513815EABDOUL AZIZ     MBENGUE       00000016236P0031564201091933CENTRE PEYTAVIN
515662GBABACAR         SARR          00000054960F0047198801091933CENTRE PEYTAVIN
517247FAMADOU          LAKH          59745G      0033301201091933CENTRE PEYTAVIN
602953AMASS            SENE          1033482310110041020101091933CENTRE PEYTAVIN
608452MMACOUMBA        NDIAYE        52039F      0030511001091933CENTRE PEYTAVIN
610295GABDOULAYE       MBAYE         054594H     0032570001091933CENTRE PEYTAVIN
513788ZAUGUSTIN        BADIANE       52345N      0033539401091933CENTRE PEYTAVIN
608436GMBAYE           THIANDOUM     052343L     0043967401091933CENTRE PEYTAVIN
614392MTOUMANE         GOUDIABY      0378358001010034002601091933CENTRE PEYTAVIN
623422CSOKHNA          DIALLO        01519400101 0031900401091933CENTRE PEYTAVIN
387147BBATY            NDIAYE        0369731001010017624601091933CENTRE PEYTAVIN
500544ZMOHAMED MOUSTAPHSECK          5195N       0014390601091933CENTRE PEYTAVIN
632096HEL HADJI MEISSA PAYE          36205V      0016117901091933CENTRE PEYTAVIN
632497CELHADJI GORNAROUGUEYE         0062286001010018668201091933CENTRE PEYTAVIN
618247HFATOU           KALOGA        56500E      0009984501091933CENTRE PEYTAVIN
381966MIBRAHIMA DIAW   KEBE          54340/G     0047643301091933CENTRE PEYTAVIN
508062QMAMADOU BOUBOU  THIAM         0000000319440050021101091933CENTRE PEYTAVIN
510188CMOUHAMADOU LAMINMANE          59397/D     0071315201091933CENTRE PEYTAVIN
620221CPAPA BABACAR    SY            0369603001010013319801091933CENTRE PEYTAVIN
511403BSALIF           BA            056591D     0038745501091933CENTRE PEYTAVIN
618868CMIKAYLOU        THIAM         65127G      0013722401091933CENTRE PEYTAVIN
387144ABABACAR         WILLANE       49430V      0009864201091933CENTRE PEYTAVIN
403570IKAYNACK         DIONE         59534/C     0108868401091933CENTRE PEYTAVIN
436617EDIARRA          DIOP          1042369210610014569101091933CENTRE PEYTAVIN
436618FCHEIKH GAYE     DIOP          1042748610110014453701091933CENTRE PEYTAVIN
436695ELAMINE KALIFA   SAMBOU        1038771610110015328001091933CENTRE PEYTAVIN
436706FALY NDIAYE      SY            1036833410110027680201091933CENTRE PEYTAVIN
436714CPIERRE RENE     BASSE         1036119510110023088501091933CENTRE PEYTAVIN
436738EMAMADOU         MBENGUE       1038757610110019291001091933CENTRE PEYTAVIN
437094MSAMBA           SOW           1038768710410021903701091933CENTRE PEYTAVIN
437462HPAPE COLY       FAYE          1042743610110018105501091933CENTRE PEYTAVIN
437809IMAMADOU MANGARA GUISSE        1038769010110011710501091933CENTRE PEYTAVIN
437840DMANDIAYE        GUEYE         1037257810110018156101091933CENTRE PEYTAVIN
437858CTHIENDOU        NIANG         1042992610110015321001091933CENTRE PEYTAVIN
437860FCHEIKH          SAMB          1040189810110013344801091933CENTRE PEYTAVIN
439047GMBARGOU         DIOP          1042788610110013966201091933CENTRE PEYTAVIN
439989ZEL HADJI MALICK SEYE          1042798310110015692701091933CENTRE PEYTAVIN
440014COUSMANE         NDIAYE        1041417910210018963701091933CENTRE PEYTAVIN
440693ZKHADY           DIEDHIOU      1042157110110015728801091933CENTRE PEYTAVIN
440728MASSANE          BA            1040637610110019713701091933CENTRE PEYTAVIN
441077AMOUHAMADOU LAMINSALL          1043474810110022253101091933CENTRE PEYTAVIN
441098BMAMADOU         DIBA          1042131810110024508401091933CENTRE PEYTAVIN
441244AADAMA           KANE          1010996410110013344801091933CENTRE PEYTAVIN
441278BBOUBACAR        BADIANE       1037840310110014344801091933CENTRE PEYTAVIN
441749KSAMBA           KA            1043664610110016657901091933CENTRE PEYTAVIN
441773BEL HADJI LAMINE NDAO          1042474010110010729501091933CENTRE PEYTAVIN
442926KJEAN PASCAL     BASSENE       1043245610110008821901091933CENTRE PEYTAVIN
442978HDJIBRIL         NDIAYE        1042989610110015942701091933CENTRE PEYTAVIN
442982AMAMADOU SONEM   NIANG         1043375910110013344801091933CENTRE PEYTAVIN
442998FOUSMANE         WAGNE         1044119510110019736101091933CENTRE PEYTAVIN
443412BALIOUNE BADARA  DIENE         1043629810110018217201091933CENTRE PEYTAVIN
443509KPAPA SALIF      NDIAYE        1043630410110015249101091933CENTRE PEYTAVIN
443602EOUSSEYNOU       DIOP          1043619010110015476001091933CENTRE PEYTAVIN
445209FAMADOU          CORREA        1044500710110010172201091933CENTRE PEYTAVIN
445498BFATOU           DIENE         1045028210110015924901091933CENTRE PEYTAVIN
445525CABDOULAYE NDENE MBENGUE       1045039910110013344801091933CENTRE PEYTAVIN
446056EBABACAR         DIOP          1046502610110012413001091933CENTRE PEYTAVIN
447505CABDOU KEBA      DIOP          1047037610110014494901091933CENTRE PEYTAVIN
447543CIBRAHIMA        GUEYE         1047037310110014494901091933CENTRE PEYTAVIN
447641DAMADOU          TRAORE        1047037710110013302201091933CENTRE PEYTAVIN
447665BIBRAHIMA        DIA           1046867310110012744901091933CENTRE PEYTAVIN
507177KMAMADOU         CAMARA        0061799001010043194301091933CENTRE PEYTAVIN
507495LMARIE           DIATTA        00000030174P0031487401091933CENTRE PEYTAVIN
510562CDRAMANE         MAGASSOUBA    51011/N     0029960101091933CENTRE PEYTAVIN
511109EDESIRE DIEUDONNEOUDIANE       056312/A    0030250901091933CENTRE PEYTAVIN
511117BALIOU FAMARA    SAMBOU        1047602010110036917501091933CENTRE PEYTAVIN
512129BGEORGES SIBOUKE DIEME         53356/M     0040545701091933CENTRE PEYTAVIN
512805GETIENNE BARNABE NDIAYE        60109/C     0034726001091933CENTRE PEYTAVIN
515180PALIA ADAMA      NDOUR         1043468210110037636301091933CENTRE PEYTAVIN
515182NOUSSEYNOU       FAYE          1035741110110036563401091933CENTRE PEYTAVIN
515204CMAMADOU         SAMBE         1047675810110030713301091933CENTRE PEYTAVIN
515209BCHEIKH BACARY   COLY          52089/K     0041736201091933CENTRE PEYTAVIN
515211GAMADOU          SAMBA         0062493001010038372401091933CENTRE PEYTAVIN
515435CVOURY           FAYE          1042348510110041722801091933CENTRE PEYTAVIN
517019CPIERRE LAFOND   GUEYE         1041412210110038440001091933CENTRE PEYTAVIN
519304FBILALY          DIALLO        1038223410110036464001091933CENTRE PEYTAVIN
519305EPAPA MOUSTAPHA  COLY          1043694810110032984901091933CENTRE PEYTAVIN
519473MABDOULAYE       NDIAYE        52494/A     0040440701091933CENTRE PEYTAVIN
519479GBOUGOUMA        SECK          51436/A     0037339401091933CENTRE PEYTAVIN
600924ETHEOPHANE G D   TOTAH         1042940310110035105501091933CENTRE PEYTAVIN
600927HPAPA YORO       DIA           52829/P     0036059901091933CENTRE PEYTAVIN
600930ZALPHA OMAR      SONKO         057230/Y    0031415101091933CENTRE PEYTAVIN
600935EABDOU KHA D     DIAWARA       1032904410110039187001091933CENTRE PEYTAVIN
602880HDHEHIBOU        SYLLA         0369497001010032925101091933CENTRE PEYTAVIN
602881GMOR MAREME      DIOP          1044244910110048319601091933CENTRE PEYTAVIN
605527ASIDY            NIASS         1045148610110032218201091933CENTRE PEYTAVIN
605565GCHEIKH          MBAYE         0058394/N   0042968601091933CENTRE PEYTAVIN
605616ZDJIBRIL         DEGUENON      50485/S     0036870001091933CENTRE PEYTAVIN
605619CALIOUNE         KONATE        1042667810110033264901091933CENTRE PEYTAVIN
607501GSEYNI           SENE          0367982001010011910301091933CENTRE PEYTAVIN
607775HDIAKARIA        SANE          1034115110110034848001091933CENTRE PEYTAVIN
607791NMASSAMBA        GUEYE         60716/M     0034733201091933CENTRE PEYTAVIN
607838ZBONIFACE        DIEDHIOU      55562/K     0025257001091933CENTRE PEYTAVIN
607865FABDOULAYE       SY            59865/M     0040259001091933CENTRE PEYTAVIN
607874HAMADOU          LY            1046242610110032354101091933CENTRE PEYTAVIN
608629AMAMADOU CELLOU  SOW           3697920010120032486101091933CENTRE PEYTAVIN
608631JPAPE BADARA     NIANG         0037060410110021955601091933CENTRE PEYTAVIN
608652KALIOU MALICK    COUNDOUL      0373607001010038449201091933CENTRE PEYTAVIN
608673LDJIBRIL         MBENGUE       1040135610110033435101091933CENTRE PEYTAVIN
